:100000000C9434000C9451000C9451000C94510049
:100010000C9451000C9451000C9451000C9451001C
:100020000C9451000C9451000C9451000C9451000C
:100030000C9451000C94E3020C9451000C94510068
:100040000C9451000C9451000C94CB040C9451006E
:100050000C9451000C9451000C9451000C945100DC
:100060000C9451000C94510011241FBECFEFD8E026
:10007000DEBFCDBF11E0A0E0B1E0E4EEFEE002C0E3
:1000800005900D92A83CB107D9F723E0A8ECB1E0A8
:1000900001C01D92A63CB207E1F70E9405050C9431
:1000A00070070C940000FFCF9C01AB01892B99F1E4
:1000B000672B89F18091200290912102892B59F5BB
:1000C00080911E0290911F0260911C0270911D028E
:1000D000862B972B6091180270911902862B972B13
:1000E0000097C9F4309321022093200250931F02FD
:1000F00040931E0210921D0210921C0260E070E0FC
:10010000F90116A615A66F5F7F4F2A5C3F4F461771
:100110005707B1F7089581E090E008959C01CB0165
:100120002115310569F0892B59F03093CB012093CB
:10013000CA017093C9016093C80180E090E00895FE
:1001400081E090E008950F93CF93DF93DC01CA0123
:10015000A901109709F445C0009709F442C0232B68
:1001600009F43FC02FEF200F2E3FD8F52091180241
:1001700030911902232BA9F520911C0230911D0208
:10018000E0911E02F0911F022E173F0750F5E6E3A3
:10019000E29FE001E39FD00D1124E0912002F09155
:1001A0002102EC0FFD1F56A345A3B0A7A7A361A78B
:1001B00072A794A783A781E090E096A785A72F5FF9
:1001C0003F4FC90130AB27A712AA11AA03AB14AA4B
:1001D00015AA30931D0220931C02DF91CF910F913D
:1001E00008958FEF9FEFF9CF9C0118161906DCF4E4
:1001F00080911C0290911D0282179307A0F046E3A4
:10020000429FC001439F900D1124E0912002F09184
:100210002102E80FF91FF69781E090E096A785A7E5
:1002200080E090E0089581E090E00895AF92BF9261
:10023000CF92DF92EF92FF920F931F93CF93DF93B2
:100240008091180290911902892B09F0DEC081EF8C
:1002500091E00E9415038CEC91E00E9415034091FF
:10026000C8015091C9016091CA017091CB01E12C84
:10027000F12C03E510E021EF31E08CEC91E00E94DD
:100280002C0400E010E0C12CD12C80911C02909134
:100290001D02C816D906D8F181E090E090931902AA
:1002A0008093180201E016E340911C0250911D0258
:1002B0006091200270912102FB01DB01C12CD12C45
:1002C00020E030E080E090E08417950709F046C018
:1002D000D11409F47BC0C1105CC0C90101969C0116
:1002E00097FD76C030931702209316021816190650
:1002F0000CF471C06CEC71E081EF91E00E94A903F5
:10030000019691F686E091E00E944407CDCF80915E
:10031000200290912102800F911F0E941503580125
:1003200026E3A20EB11C892B09F06FC0E0912002D8
:10033000F0912102E00FF11FE1A4F2A407A110A5A2
:1003400045A156A163A574A521EF31E0CF010E941C
:100350002C048FEFC81AD80A850197CF9D96ED908F
:10036000FC909E97EF2881F0D396FC90D397DF14F2
:1003700070F0FD1009C0D496EC90D497DF2CE114F6
:1003800019F0EC01CC24C3940196D6969DCF9C0124
:10039000F2CFCE0101961C9FD0011D9FB00D1124FC
:1003A000AD59BF4FA60FB71F8417950708F095CF1B
:1003B000ED90FC9011970196EF2831F01696FC9085
:1003C0001697DF1409F48BCFD696EECF80E090E03D
:1003D00020E030E087CF129FC001139F900D1124C1
:1003E000C697680F791FDB01D3962C9180E090E0CF
:1003F0004817590719F4FB0104AB7ECF33A9231327
:1004000001C014AA0196F696F3CF81E090E0DF9147
:10041000CF911F910F91FF90EF90DF90CF90BF9001
:10042000AF9008958091180290911902892BF1F0F4
:10043000209116023091170237FD18C061EF71E06C
:100440008CEC91E02115310579F046E3429FC00123
:10045000439F900D1124C6972091200230912102D4
:1004600061EF71E0820F931F0C94A90381E090E08B
:1004700008959C0197FD26C080911C0290911D0259
:1004800082179307F8F080911602909117022115B8
:10049000310521F418161906ACF49C0166E3629F3D
:1004A000A001639F500D1124E0912002F0912102E0
:1004B000E40FF51FF69716A615A62817390729F495
:1004C0000C94120281E090E0089580E090E008959D
:1004D0000C944804CF93DF93AC0180911802909163
:1004E0001902892B51F1809116029091170218166A
:1004F00019061CF526E3289FE001299FD00D112441
:10050000E697E0912002F0912102EC0FFD1F21E01F
:1005100025AB20911A0230911B02240F351F32ABFC
:1005200021AB0E943902E0912002F0912102EC0FF0
:10053000FD1F15AADF91CF91089581E090E0FACFD9
:10054000EF92FF920F931F93CF93DF938091180246
:10055000909119020097B1F0C0911A02D0911B023C
:100560002196D0931B02C0931A02E12CF12C00E0DB
:1005700010E080E090E020911C0230911D020217F3
:10058000130738F0DF91CF911F910F91FF90EF90FB
:100590000895E0912002F0912102EE0DFF1D25A9A2
:1005A000211559F021A932A9C217D30730F087A528
:1005B00090A90E94F40081E090E00F5F1F4F26E3B6
:1005C000E20EF11CD8CF1F920F920FB60F9211249A
:1005D0002F933F934F935F936F937F938F939F934B
:1005E000AF93BF93EF93FF9380EF9FEF90938500BE
:1005F000809384008091180290911902009721F055
:100600000E94A0020E941202FF91EF91BF91AF9150
:100610009F918F917F916F915F914F913F912F911A
:100620000F900FBE0F901F901895EF93FF93EFB7A9
:100630000F92EF93E82FF92F0F9001920F900192F4
:1006400011922192319241925192619271928192D2
:100650009192A192B192C192D192E192F1920193C1
:1006600011932193319341935193619371938193AA
:100670009193A193B193C193D193CE2FDF2FFF918B
:10068000EF91E993F993EF91FF91F993E993ADB766
:10069000BEB7A993B883FF93EF93EC2FFD2FCFB78D
:1006A0003997CFBFA191B191C191D191CF93DF93F0
:1006B000CE2FDF2FE991F881DF91CF9180E090E09C
:1006C0000895E82FF92FB49600800EBE02900DBE5B
:1006D000129002900F921F92CE2FDF2FFA91EA9183
:1006E000FF93EF93EC2FFD2FD291C291B291A29183
:1006F00092918291729162915291429132912291A2
:1007000012910291F290E290D290C290B290A29097
:100710009290829072906290529042903290229089
:10072000129002900F9202900FBE0F90EF91FF91E6
:1007300080E090E00895CF93DF93D82FC92FCA01AE
:10074000FB0109958D2F9C2F0E946103DF91CF91B2
:100750000895EF93FF93EFB70F92EF93E82FF92FE0
:100760000F9001920F900192119221923192419239
:1007700051926192719281929192A192B192C192A1
:10078000D192E192F192019311932193319341938C
:1007900051936193719381939193A193B193C19379
:1007A000D193CE2FDF2FFF91EF91E993F993EF9142
:1007B000FF91F993E993ADB7BEB7A993B883FF93BF
:1007C000EF93EC2FFD2FCFB73997CFBFA191B19108
:1007D000C191D191CF93DF93CE2FDF2FE991F88193
:1007E000DF91CF91E62FF72FB49600800EBE0290D6
:1007F0000DBE129002900F921F92CE2FDF2FFA9112
:10080000EA91FF93EF93EC2FFD2FD291C291B29119
:10081000A291929182917291629152914291329100
:10082000229112910291F290E290D290C290B290F5
:10083000A2909290829072906290529042903290E8
:100840002290129002900F9202900FBE0F90EF91A3
:10085000FF9180E090E00895EF92FF920F931F9335
:10086000FC0141505109640F751F74A363A38BE908
:1008700093E092A381A3218F328F078B108FE58A9B
:10088000F68A80E090E01F910F91FF90EF9008951D
:10089000E4E6F0E08081877F808385E080938100BB
:1008A000EFE6F0E080818160808380EF9FEF90939E
:1008B000850080938400789480E090E0089583E13F
:1008C00091E00E9444072D9A84EF91E00E946A0211
:1008D000892BA9F381E291E00E944407F0CF8FE2D7
:1008E00091E00E9444072D988CEB92E00E946A02EE
:1008F000892BA9F381E291E00E944407F0CFCF93C6
:10090000C82FCB01892B79F0CA3019F48DE00E94F1
:100910007F048091C00085FFFCCFC093C60080E0BB
:1009200090E0CF9108958FEF9FEFFBCF892B41F09F
:100930008091C00087FFFCCF8091C60090E00895B1
:100940008FEF9FEF0895009719F1E091BA03F091AE
:10095000BB030190F081E02D309719F40C949604BC
:100960000000228533858485958528173907C1F3D2
:10097000DF01A20FB31F4C91C90101966AE070E03C
:100980000E94960593878287842F440F990B0895C0
:100990008FEF9FEF08950F920FB60F921F921124C1
:1009A0002F935F936F937F938F939F93AF93BF9397
:1009B000EF93FF93E091BA03F091BB030190F081B4
:1009C000E02D309799F08091C00087FFFCCF2091F7
:1009D000C60084859585DF01A80FB91F2C93019669
:1009E0006AE070E00E94960595878487FF91EF91F9
:1009F000BF91AF919F918F917F916F915F912F9157
:100A00001F900F900FBE0F9018952FEF89E698E179
:100A1000215080409040E1F700C000001092C500D6
:100A200087E68093C4006EE070E081E090E00E9471
:100A3000AA05EC01892B09F064C088E18093C1000C
:100A400086E08093C20066E974E08FE794E00E943C
:100A5000FA069093BB038093BA038EE391E00E9461
:100A60004407259A64E670E086E593E00E948E00D4
:100A7000892B21F087E491E00E94440762E070E056
:100A80008AEE92E00E945400892B21F08BE591E0E0
:100A90000E94440702E024E630E046E852E060E0CD
:100AA00070E08FE594E00E94A3001816190624F068
:100AB00081E791E00E94440701E024E630E042E251
:100AC00052E060E070E08FE694E00E94A300181608
:100AD000190624F087E891E00E9444070E9468020A
:100AE000892B21F08EE991E00E9444070E941601B3
:100AF000892B21F080EB91E00E94440780E090E098
:100B0000089588E98093C10086E08093C20063EA7B
:100B100074E08FE794E00E94FA06FC019093BB0317
:100B20008093BA03D183C083789497CFAA1BBB1B51
:100B300051E107C0AA1FBB1FA617B70710F0A61BDD
:100B4000B70B881F991F5A95A9F780959095BC01FE
:100B5000CD0108950F931F93CF93DF93869F80015C
:100B6000879F100D969F100D1124C8010E94C60585
:100B7000EC01009729F0A80160E070E00E94F30604
:100B8000CE01DF91CF911F910F9108950F931F9385
:100B9000CF93DF939C01029710F422E030E0E091C4
:100BA000BC03F091BD0380E090E0A0E0B0E030979E
:100BB00091F4009709F448C0821B930B843091058F
:100BC000D0F58A819B816115710581F1FB019383C9
:100BD0008283FE0111C0408151810281138142173D
:100BE0005307D8F04217530799F4109761F0129603
:100BF0000C93129713961C933296CF01DF91CF91ED
:100C00001F910F9108950093BC031093BD03F4CF7F
:100C1000009751F04817590738F0AC01DB01CA01C1
:100C2000BD01DF01F801C3CFEF01F9CF9093BD0300
:100C30008093BC03CECFFE01E80FF91F21933193BF
:100C4000029799838883D9CF8091BE039091BF0387
:100C5000892B41F480910201909103019093BF038D
:100C60008093BE038091000190910101009741F4AF
:100C70008DB79EB74091040150910501841B950BDF
:100C80004091BE035091BF034817590708F0B5CFF4
:100C9000841B950B8217930708F4AFCFB9016E5FE1
:100CA0007F4F8617970708F4A8CF640F751F7093BE
:100CB000BF036093BE03FA01219331939ECFCF937C
:100CC000DF939C010097D9F0FC01329713821282C6
:100CD000C091BC03D091BD03209709F058C080811A
:100CE0009181280F391F8091BE039091BF03821715
:100CF000930709F06DC0F093BF03E093BE03DF914B
:100D0000CF910895AE17BF0708F048C0CD011296E5
:100D10000D90BC91A02D1097A9F7DC011396FC93C0
:100D2000EE9312974D915D919D01240F351FE217AF
:100D3000F30781F4208131812E5F3F4F240F351F4F
:100D4000DC0111963C932E932281338113963C93C0
:100D50002E931297E0E0F0E08A819B810097E9F5FD
:100D6000DE018D919D918A0F9B1F2091BE033091D2
:100D7000BF032817390719F6309791F51092BD0374
:100D80001092BC03D093BF03C093BE03B8CFDE0163
:100D900080E090E0CE17DF0708F4B8CFB383A283DA
:100DA00040815181240F351FA217B30771F44E5FA4
:100DB0005F4F2D913C911197240F351F3183208374
:100DC00012962D913C9133832283009709F0A5CF91
:100DD000F093BD03E093BC0392CFFE01EC01BCCFC6
:100DE00013821282CFCFDC0101C06D93415050407D
:100DF000E0F708950F931F93CF93DF93EC018B01DE
:100E0000892B51F4672B41F4E0E0F0E0CF01DF9152
:100E1000CF911F910F9108956EE070E081E090E016
:100E20000E94AA05FC01892B79F380E883830115D0
:100E3000110571F01387028781E883838091C003D5
:100E40009091C103892B21F4F093C103E093C00377
:100E50002097E1F2D187C08783818260838380916C
:100E6000C2039091C303892B89F6F093C303E093E7
:100E7000C2038091C4039091C503892B39F6F09386
:100E8000C503E093C403C2CF0F931F93CF93DF93A7
:100E9000E091C203F091C303238100E010E021FD43
:100EA0000EC00FEF1FEFC801DF91CF911F910F917F
:100EB00008950995892B11F00FEF1FEFCE01EC017A
:100EC00089916091C2037091C303DB011896ED9183
:100ED000FC918111EECF8AE00995892B21F3E1CFB6
:040EE000F894FFCFB4
:100EE4000000C6032000737769746368206572721A
:100EF4006F72006C65645F6F6E5F746872656164C5
:100F040000736C6565702070726F626C656D006C47
:100F140065645F6F66665F746872656164007374AC
:100F2400617274696E670069646C652074687265C7
:100F340061642070726F626C656D007468726561C3
:100F440064732061727261792070726F626C656D76
:100F5400006C65645F6F6E5F7468726561642070B5
:100F6400726F626C656D006C65645F6F66665F745A
:100F740068726561642070726F626C656D00696E81
:100F8400746572727570742070726F626C656D0036
:100F94007374617274207363686564756C65722020
:080FA40070726F626C656D0054
:00000001FF
