:100000000C9434000C9451000C9451000C94510049
:100010000C9451000C9451000C9451000C9451001C
:100020000C9451000C9451000C9451000C9451000C
:100030000C9451000C94FE020C9451000C9451004D
:100040000C9451000C9451000C94DE040C9451005B
:100050000C9451000C9451000C9451000C945100DC
:100060000C9451000C94510011241FBECFEFD8E026
:10007000DEBFCDBF11E0A0E0B1E0EAE0FFE002C0EA
:1000800005900D92AC3AB107D9F728E0ACEAB1E09F
:1000900001C01D92AE37B207E1F70E9418050C941B
:1000A00083070C9400007894FFCF9C01AB01892B4F
:1000B00099F1672B89F18091040290910502892BB7
:1000C00059F58091020290910302609100027091B3
:1000D0000102862B972B6091FC017091FD01862B0C
:1000E000972B0097C9F43093050220930402509394
:1000F000030240930202109201021092000260E09B
:1001000070E0F90116A615A66F5F7F4F2A5C3F4F7E
:1001100046175707B1F7089581E090E008959C01D4
:10012000CB012115310569F0892B59F03093AF01CE
:100130002093AE017093AD016093AC0180E090E03C
:10014000089581E090E008950F93CF93DF93DC0151
:10015000CA01A901109709F445C0009709F442C0EB
:10016000232B09F43FC02FEF200F2E3FD8F520910D
:10017000FC013091FD01232BA9F520910002309163
:100180000102E0910202F09103022E173F0750F5A1
:10019000E6E3E29FE001E39FD00D1124E091040229
:1001A000F0910502EC0FFD1F56A345A3B0A7A7A32E
:1001B00061A772A794A783A781E090E096A785A77F
:1001C0002F5F3F4FC90130AB27A712AA11AA03AB7B
:1001D00014AA15AA3093010220930002DF91CF9157
:1001E0000F9108958FEF9FEFF9CF9C011816190614
:1001F000DCF4809100029091010282179307A0F035
:1002000046E3429FC001439F900D1124E0910402F8
:10021000F0910502E80FF91FF69781E090E096A7AC
:1002200085A780E090E0089581E090E00895AF9286
:10023000BF92CF92DF92EF92FF920F931F93CF93D3
:10024000DF938091FC019091FD01892B09F0DFC0C3
:1002500085ED91E00E94300380EB91E00E94300335
:100260004091AC015091AD016091AE017091AF0130
:10027000E12CF12C03E510E025ED31E080EB91E07D
:100280000E94470400E010E0C12CD12C80910002B4
:1002900090910102C816D906E0F1F89481E090E04F
:1002A0009093FD018093FC0101E016E34091000270
:1002B000509101026091040270910502FB01DB0183
:1002C000C12CD12C20E030E080E090E0841795072D
:1002D00009F046C0D11409F47BC0C1105CC0C9014B
:1002E00001969C0197FD76C03093FB012093FA01A3
:1002F000181619060CF471C060EB71E085ED91E001
:100300000E94C403019691F686E091E00E9457078F
:10031000CDCF8091040290910502800F911F0E9421
:100320003003580126E3A20EB11C892B09F06FC0DF
:10033000E0910402F0910502E00FF11FE1A4F2A4A4
:1003400007A110A545A156A163A574A525ED31E02F
:10035000CF010E9447048FEFC81AD80A850196CFB3
:100360009D96ED90FC909E97EF2881F0D396FC909F
:10037000D397DF1470F0FD1009C0D496EC90D49799
:10038000DF2CE11419F0EC01CC24C3940196D6962D
:100390009DCF9C01F2CFCE0101961C9FD0011D9FE5
:1003A000B00D1124AD59BF4FA60FB71F8417950785
:1003B00008F095CFED90FC9011970196EF2831F061
:1003C0001696FC901697DF1409F48BCFD696EECFD5
:1003D00080E090E020E030E087CF129FC001139FC3
:1003E000900D1124C697680F791FDB01D3962C91CD
:1003F00080E090E04817590719F4FB0104AB7ECF69
:1004000033A9231301C014AA0196F696F3CF81E015
:1004100090E0DF91CF911F910F91FF90EF90DF90CF
:10042000CF90BF90AF9008958091FC019091FD0115
:10043000892BF1F02091FA013091FB0137FD18C0B2
:1004400065ED71E080EB91E02115310579F046E32F
:10045000429FC001439F900D1124C6972091040232
:100460003091050265ED71E0820F931F0C94C40377
:1004700081E090E008959C0197FD26C080910002E4
:100480009091010282179307F8F08091FA01909100
:10049000FB012115310521F418161906ACF49C0155
:1004A00066E3629FA001639F500D1124E091040256
:1004B000F0910502E40FF51FF69716A615A628176A
:1004C000390729F40C94140281E090E0089580E04B
:1004D00090E008950C946304CF93DF93AC01F894FB
:1004E0008091FC019091FD01892B59F18091FA01D5
:1004F0009091FB011816190624F526E3289FE001C8
:10050000299FD00D1124E697E0910402F091050295
:10051000EC0FFD1F21E025AB2091FE013091FF0182
:10052000240F351F32AB21AB0E943B02E091040245
:10053000F0910502EC0FFD1F15AA7894DF91CF9181
:10054000089581E090E0FACFCF92DF92EF92FF9290
:100550000F931F93CF93DF938091FC019091FD0146
:10056000009711F1C091FE01D091FF012196D09327
:10057000FF01C093FE01C0900002D09001022097BD
:1005800051F4E0910402F091050280E090E021E056
:100590008C159D0591F4E12CF12C00E010E080E039
:1005A00090E00C151D0581F4DF91CF911F910F9103
:1005B000FF90EF90DF90CF90089535A9323009F485
:1005C00025AB0196F696E4CFE0910402F091050286
:1005D000EE0DFF1D25A9213059F421A932A9C2171A
:1005E000D30730F087A590A90E94F50081E090E044
:1005F0000F5F1F4F26E3E20EF11CD3CF1F920F9225
:100600000FB60F9211242F933F934F935F936F93E5
:100610007F938F939F93AF93BF93EF93FF938EEF4F
:100620009FEF90938500809384008091FC019091CE
:10063000FD01009721F00E94A4020E941402FF9184
:10064000EF91BF91AF919F918F917F916F915F914A
:100650004F913F912F910F900FBE0F901F901895C3
:10066000EF93FF93EFB70F92EF93E82FF92F0F90CF
:1006700001920F90019211922192319241925192E6
:100680006192719281929192A192B192C192D19212
:10069000E192F192019311932193319341935193FC
:1006A0006193719381939193A193B193C193D193EA
:1006B000CE2FDF2FFF91EF91E993F993EF91FF9107
:1006C000F993E993ADB7BEB7A993B883FF93EF93BE
:1006D000EC2FFD2FCFB73997CFBFA191B191C19129
:1006E000D191CF93DF93CE2FDF2FE991F881DF9166
:1006F000CF9180E090E00895E82FF92FB496008024
:100700000EBE02900DBE129002900F921F92CE2F3D
:10071000DF2FFA91EA91FF93EF93EC2FFD2FD29107
:10072000C291B291A29192918291729162915291F1
:1007300042913291229112910291F290E290D290E4
:10074000C290B290A29092908290729062905290D9
:10075000429032902290129002900F9202900FBE1F
:100760000F90EF91FF9180E090E00895CF93DF9399
:10077000D82FC92FCA01FB0109958D2F9C2F0E94EC
:100780007C03DF91CF910895EF93FF93EFB70F9222
:10079000EF93E82FF92F0F9001920F900192119291
:1007A00021923192419251926192719281929192F1
:1007B000A192B192C192D192E192F19201931193DF
:1007C00021933193419351936193719381939193C9
:1007D000A193B193C193D193CE2FDF2FFF91EF91CE
:1007E000E993F993EF91FF91F993E993ADB7BEB710
:1007F000A993B883FF93EF93EC2FFD2FCFB73997D1
:10080000CFBFA191B191C191D191CF93DF93CE2F61
:10081000DF2FE991F881DF91CF91E62FF72FB49682
:1008200000800EBE02900DBE129002900F921F9299
:10083000CE2FDF2FFA91EA91FF93EF93EC2FFD2F4C
:10084000D291C291B291A291929182917291629150
:10085000529142913291229112910291F290E29042
:10086000D290C290B290A290929082907290629038
:100870005290429032902290129002900F920290E9
:100880000FBE0F90EF91FF9180E090E00895EF92FE
:10089000FF920F931F93FC0141505109640F751F84
:1008A00074A363A386EB93E092A381A3218F328F7D
:1008B000078B108FE58AF68A80E090E01F910F91F8
:1008C000FF90EF900895E4E6F0E08081877F8083D9
:1008D00085E080938100EFE6F0E080818160808395
:1008E0008EEF9FEF9093850080938400789480E052
:1008F00090E008952D9A84EF91E00E946C02892B7C
:10090000C9F383E191E00E945707F4CF2D988CEB57
:1009100092E00E946C02892BC9F383E191E00E946E
:100920005707F4CFCF93C82FCB01892B79F0CA306A
:1009300019F48DE00E9492048091C00085FFFCCFE5
:10094000C093C60080E090E0CF9108958FEF9FEFB5
:10095000FBCF892B41F08091C00087FFFCCF8091B5
:10096000C60090E008958FEF9FEF0895009719F16A
:10097000E0917208F09173080190F081E02D3097BA
:1009800019F40C94A904000022853385848595858B
:1009900028173907C1F3DF01A20FB31F4C91C9011A
:1009A00001966AE070E00E94A90593878287842FF0
:1009B000440F990B08958FEF9FEF08950F920FB694
:1009C0000F921F9211242F935F936F937F938F93B6
:1009D0009F93AF93BF93EF93FF93E0917208F091D1
:1009E00073080190F081E02D309799F08091C0005C
:1009F00087FFFCCF2091C60084859585DF01A80F75
:100A0000B91F2C9301966AE070E00E94A9059587B2
:100A10008487FF91EF91BF91AF919F918F917F91CB
:100A20006F915F912F911F900F900FBE0F901895AF
:100A30002FEF89E698E1215080409040E1F700C017
:100A400000001092C50087E68093C4006EE070E05D
:100A500081E090E00E94BD05EC01892B09F064C0A3
:100A600088E18093C10086E08093C20069EA74E067
:100A700082E994E00E940D079093730880937208B6
:100A800081E291E00E945707259A60E072E082E7D8
:100A900096E00E948F00892B21F08AE291E00E946B
:100AA000570762E070E086E096E00E945500892BCF
:100AB00021F08EE391E00E94570702E020E032E04F
:100AC00046E054E060E070E08AE794E00E94A40011
:100AD0001816190624F084E591E00E94570701E0FA
:100AE00020E032E046E052E060E070E086E894E02A
:100AF0000E94A4001816190624F08AE691E00E94CC
:100B000057070E946A02892B21F081E891E00E9438
:100B100057070E941701892B21F083E991E00E9479
:100B2000570780E090E0089588E98093C10086E04F
:100B30008093C20066EB74E082E994E00E940D07A6
:100B4000FC019093730880937208D183C0837894DA
:100B500097CFAA1BBB1B51E107C0AA1FBB1FA6173B
:100B6000B70710F0A61BB70B881F991F5A95A9F756
:100B700080959095BC01CD0108950F931F93CF935D
:100B8000DF93869F8001879F100D969F100D112483
:100B9000C8010E94D905EC01009729F0A80160E086
:100BA00070E00E940607CE01DF91CF911F910F9157
:100BB00008950F931F93CF93DF939C01029710F436
:100BC00022E030E0E0917408F091750880E090E058
:100BD000A0E0B0E0309791F4009709F448C0821B80
:100BE000930B84309105D0F58A819B816115710545
:100BF00081F1FB0193838283FE0111C04081518109
:100C00000281138142175307D8F04217530799F412
:100C1000109761F012960C93129713961C933296CC
:100C2000CF01DF91CF911F910F9108950093740828
:100C300010937508F4CF009751F04817590738F012
:100C4000AC01DB01CA01BD01DF01F801C3CFEF0137
:100C5000F9CF9093750880937408CECFFE01E80F0A
:100C6000F91F21933193029799838883D9CF80917B
:100C7000760890917708892B41F480910201909138
:100C800003019093770880937608809100019091FA
:100C90000101009741F48DB79EB740910401509136
:100CA0000501841B950B40917608509177084817F1
:100CB000590708F0B5CF841B950B8217930708F4EA
:100CC000AFCFB9016E5F7F4F8617970708F4A8CFA3
:100CD000640F751F7093770860937608FA0121936B
:100CE00031939ECFCF93DF939C010097D9F0FC0105
:100CF000329713821282C0917408D09175082097A0
:100D000009F058C080819181280F391F80917608A1
:100D1000909177088217930709F06DC0F0937708D8
:100D2000E0937608DF91CF910895AE17BF0708F0E2
:100D300048C0CD0112960D90BC91A02D1097A9F737
:100D4000DC011396FC93EE9312974D915D919D01FA
:100D5000240F351FE217F30781F4208131812E5FC4
:100D60003F4F240F351FDC0111963C932E932281B7
:100D7000338113963C932E931297E0E0F0E08A8142
:100D80009B810097E9F5DE018D919D918A0F9B1F54
:100D900020917608309177082817390719F630978F
:100DA00091F51092750810927408D0937708C0934B
:100DB0007608B8CFDE0180E090E0CE17DF0708F4B8
:100DC000B8CFB383A28340815181240F351FA2176E
:100DD000B30771F44E5F5F4F2D913C911197240F33
:100DE000351F3183208312962D913C9133832283CA
:100DF000009709F0A5CFF0937508E093740892CF9F
:100E0000FE01EC01BCCF13821282CFCFDC0101C006
:100E10006D9341505040E0F708950F931F93CF9387
:100E2000DF93EC018B01892B51F4672B41F4E0E057
:100E3000F0E0CF01DF91CF911F910F9108956EE007
:100E400070E081E090E00E94BD05FC01892B79F300
:100E500080E883830115110571F01387028781E80B
:100E600083838091780890917908892B21F4F093FD
:100E70007908E09378082097E1F2D187C0878381D1
:100E80008260838380917A0890917B08892B89F610
:100E9000F0937B08E0937A0880917C0890917D081C
:100EA000892B39F6F0937D08E0937C08C2CF0F932D
:100EB0001F93CF93DF93E0917A08F0917B08238111
:100EC00000E010E021FD0EC00FEF1FEFC801DF9121
:100ED000CF911F910F9108950995892B11F00FEF74
:100EE0001FEFCE01EC01899160917A0870917B0827
:100EF000DB011896ED91FC918111EECF8AE0099506
:0A0F0000892B21F3E1CFF894FFCF15
:100F0A0000007E0820007377697463682065727236
:100F1A006F7200736C6565702070726F626C656DBC
:100F2A00007374617274696E670069646C65207419
:100F3A0068726561642070726F626C656D007468B6
:100F4A0072656164732061727261792070726F6276
:100F5A006C656D006C65645F6F6E5F746872656165
:100F6A00642070726F626C656D006C65645F6F6699
:100F7A00665F7468726561642070726F626C656D19
:100F8A0000696E746572727570742070726F626C2B
:100F9A00656D007374617274207363686564756C3F
:0C0FAA0065722070726F626C656D000053
:00000001FF
