:100000000C9434000C9451000C9451000C94510049
:100010000C9451000C9451000C9451000C9451001C
:100020000C9451000C9451000C9451000C9451000C
:100030000C9451000C942A030C9451000C94510020
:100040000C9451000C9451000C945F050C945100D9
:100050000C9451000C9451000C9451000C945100DC
:100060000C9451000C94510011241FBECFEFD8E026
:10007000DEBFCDBF11E0A0E0B1E0ECE0F0E102C0F6
:1000800005900D92A83CB107D9F728E0A8ECB1E0A3
:1000900001C01D92AC39B207E1F70E9499050C949A
:1000A00004080C9400007894FFCF9C01AB01892BCD
:1000B00099F1672B89F18091200290912102892B7F
:1000C00059F580911E0290911F0260911C0270915F
:1000D0001D02862B972B6091180270911902862BB6
:1000E000972B0097C9F4309321022093200250935C
:1000F0001F0240931E0210921D0210921C0260E02B
:1001000070E0F90116A615A66F5F7F4F2A5C3F4F7E
:1001100046175707B1F7089581E090E008959C01D4
:10012000CB012115310569F0892B59F03093CB01B2
:100130002093CA017093C9016093C80180E090E0E8
:10014000089581E090E008950F93CF93DF93DC0151
:10015000CA01A901109709F445C0009709F442C0EB
:10016000232B09F43FC02FEF200F2E3FD8F520910D
:10017000180230911902232BA9F520911C0230910D
:100180001D02E0911E02F0911F022E173F0750F54D
:10019000E6E3E29FE001E39FD00D1124E09120020D
:1001A000F0912102EC0FFD1F56A345A3B0A7A7A312
:1001B00061A772A794A783A781E090E096A785A77F
:1001C0002F5F3F4FC90130AB27A712AA11AA03AB7B
:1001D00014AA15AA30931D0220931C02DF91CF911F
:1001E0000F9108958FEF9FEFF9CFAF92BF92CF920B
:1001F000DF92EF92FF920F931F93CF93DF93809143
:10020000180290911902892B09F0DFC081EF91E06B
:100210000E945C038CEC91E00E945C034091C80159
:100220005091C9016091CA017091CB01E12CF12C70
:1002300003E510E021EF31E08CEC91E00E947304C3
:1002400000E010E0C12CD12C80911C0290911D0285
:10025000C816D906E0F1F89481E090E09093190275
:100260008093180201E016E340911C0250911D0298
:100270006091200270912102FB01DB01C12CD12C85
:1002800020E030E080E090E08417950709F046C058
:10029000D11409F47BC0C1105CC0C90101969C0156
:1002A00097FD76C030931702209316021816190690
:1002B0000CF471C06CEC71E081EF91E00E94F003EE
:1002C000019691F686E091E00E94D807CDCF80910B
:1002D000200290912102800F911F0E945C0358011F
:1002E00026E3A20EB11C892B09F06FC0E091200219
:1002F000F0912102E00FF11FE1A4F2A407A110A5E3
:1003000045A156A163A574A521EF31E0CF010E945C
:1003100073048FEFC81AD80A850196CF9D96ED9089
:10032000FC909E97EF2881F0D396FC90D397DF1432
:1003300070F0FD1009C0D496EC90D497DF2CE11436
:1003400019F0EC01CC24C3940196D6969DCF9C0164
:10035000F2CFCE0101961C9FD0011D9FB00D11243C
:10036000AD59BF4FA60FB71F8417950708F095CF5B
:10037000ED90FC9011970196EF2831F01696FC90C5
:100380001697DF1409F48BCFD696EECF80E090E07D
:1003900020E030E087CF129FC001139F900D112401
:1003A000C697680F791FDB01D3962C9180E090E00F
:1003B0004817590719F4FB0104AB7ECF33A9231367
:1003C00001C014AA0196F696F3CF81E090E0DF9188
:1003D000CF911F910F91FF90EF90DF90CF90BF9042
:1003E000AF9008958091180290911902892BF1F035
:1003F000209116023091170237FD18C061EF71E0AD
:100400008CEC91E02115310579F046E3429FC00163
:10041000439F900D1124C697209120023091210214
:1004200061EF71E0820F931F0C94F00381E090E084
:1004300008959C0197FD2DC080911C0290911D0292
:100440008217930730F180911602909117022115BF
:10045000310521F418161906E4F49C0166E3629F45
:10046000A001639F500D1124E0912002F091210220
:10047000E40FF51FF69716A615A62817390719F0E9
:1004800080E090E008950E94E204892BC9F70C9463
:10049000F20181E090E008959C01181619068CF590
:1004A00080911C0290911D028217930750F1809158
:1004B00020029091210246E3429FF001439FF00DFC
:1004C0001124F697E80FF91F21E030E036A725A7A1
:1004D0006091160270911702469F9001479F300D60
:1004E0001124820F931F23A9FC0183A9821730F4E2
:1004F0000E94E204892B11F40E94F20180E090E056
:10050000089581E090E008950C948F04CF92DF92DB
:10051000EF92FF920F931F93CF93DF937C01809113
:10052000180290911902892BE1F1C0901602D09027
:1005300017021C141D04ACF50E94A604EC01892BC3
:1005400009F0F89486E38C9D80018D9D100D112497
:1005500006531109E0912002F0912102E00FF11FF2
:1005600081E085AB80911A0290911B028E0D9F1D38
:1005700092AB81AB16A615A60E94F201E091200273
:10058000F0912102E00FF11F15AACD2B09F078940C
:10059000DF91CF911F910F91FF90EF90DF90CF905F
:1005A000089581E090E0F4CF0F931F93CF93DF93F2
:1005B0008091180290911902009721F180911A02FE
:1005C00090911B02019690931B0280931A02009750
:1005D00061F420911C0230911D02E0912002F09103
:1005E000210241E08217930791F400E010E0C0E09F
:1005F000D0E080E090E020911C0230911D02C217F3
:10060000D30760F0DF91CF911F910F91089555A905
:10061000523009F445AB0196F696E4CFE091200202
:10062000F0912102E00FF11F25A9213079F421A9D1
:1006300032A940911A0250911B024217530730F021
:1006400087A590A90E944C0281E090E021960A5C67
:100650001F4FD1CF1F920F920FB60F9211242F93DD
:100660003F934F935F936F937F938F939F93AF933A
:10067000BF93EF93FF938EEF9FEF9093850080934E
:1006800084008091180290911902009721F00E9435
:10069000D4020E94F201FF91EF91BF91AF919F911F
:1006A0008F917F916F915F914F913F912F910F901B
:1006B0000FBE0F901F901895EF93FF93EFB70F9217
:1006C000EF93E82FF92F0F9001920F900192119262
:1006D00021923192419251926192719281929192C2
:1006E000A192B192C192D192E192F19201931193B0
:1006F000219331934193519361937193819391939A
:10070000A193B193C193D193CE2FDF2FFF91EF919E
:10071000E993F993EF91FF91F993E993ADB7BEB7E0
:10072000A993B883FF93EF93EC2FFD2FCFB73997A1
:10073000CFBFA191B191C191D191CF93DF93CE2F32
:10074000DF2FE991F881DF91CF9180E090E008956B
:10075000E82FF92FB49600800EBE02900DBE1290C5
:1007600002900F921F92CE2FDF2FFA91EA91FF9302
:10077000EF93EC2FFD2FD291C291B291A291929161
:100780008291729162915291429132912291129191
:100790000291F290E290D290C290B290A290929088
:1007A0008290729062905290429032902290129079
:1007B00002900F9202900FBE0F90EF91FF9180E098
:1007C00090E00895CF93DF93D82FC92FCA01FB0182
:1007D00009958D2F9C2F0E94A803DF91CF9108953A
:1007E000EF93FF93EFB70F92EF93E82FF92F0F904E
:1007F00001920F9001921192219231924192519265
:100800006192719281929192A192B192C192D19290
:10081000E192F1920193119321933193419351937A
:100820006193719381939193A193B193C193D19368
:10083000CE2FDF2FFF91EF91E993F993EF91FF9185
:10084000F993E993ADB7BEB7A993B883FF93EF933C
:10085000EC2FFD2FCFB73997CFBFA191B191C191A7
:10086000D191CF93DF93CE2FDF2FE991F881DF91E4
:10087000CF91E62FF72FB49600800EBE02900DBEEA
:10088000129002900F921F92CE2FDF2FFA91EA91D1
:10089000FF93EF93EC2FFD2FD291C291B291A291D1
:1008A00092918291729162915291429132912291F0
:1008B00012910291F290E290D290C290B290A290E6
:1008C00092908290729062905290429032902290D8
:1008D000129002900F9202900FBE0F90EF91FF9135
:1008E00080E090E00895EF92FF920F931F93FC0138
:1008F00041505109640F751F74A363A382EE93E006
:1009000092A381A3218F328F078B108FE58AF68AFD
:1009100080E090E01F910F91FF90EF900895E4E642
:10092000F0E08081877F808385E080938100EFE61F
:10093000F0E08081816080838EEF9FEF909385004F
:1009400080938400789480E090E008958FB7082E1B
:10095000000C990B892F881F8827881F90E0089525
:10096000909123029F3FA1F08FB7282F221F2227AB
:10097000221F911103C087FF01C0F8942093220227
:10098000809123028F5F8093230280E090E008959E
:1009900081E090E0089580912302811581F090918B
:1009A0002202815080932302811102C0911103C061
:1009B00080E090E00895109222027894F9CF81E0CF
:1009C00090E0089581E090E020912302211102C07F
:1009D00080E090E008950E94B00483E191E00E94DD
:1009E000D8070E94CB042D9A84EF91E00E948602E2
:1009F000892B89F381E291E00E94D807ECCF0E9415
:100A0000B0048FE291E00E94D8070E94CB042D9899
:100A10008CEB92E00E948602892B89F381E291E0BF
:100A20000E94D807ECCFCF93C82FCB01892B79F048
:100A3000CA3019F48DE00E9413058091C00085FF33
:100A4000FCCFC093C60080E090E0CF9108958FEF77
:100A50009FEFFBCF892B41F08091C00087FFFCCF37
:100A60008091C60090E008958FEF9FEF0895009762
:100A700019F1E0919008F09191080190F081E02D3A
:100A8000309719F40C942A0500002285338584855B
:100A9000958528173907C1F3DF01A20FB31F4C91C9
:100AA000C90101966AE070E00E942A069387828756
:100AB000842F440F990B08958FEF9FEF08950F92A5
:100AC0000FB60F921F9211242F935F936F937F9312
:100AD0008F939F93AF93BF93EF93FF93E091900811
:100AE000F09191080190F081E02D309799F080917C
:100AF000C00087FFFCCF2091C60084859585DF016B
:100B0000A80FB91F2C9301966AE070E00E942A0694
:100B100095878487FF91EF91BF91AF919F918F91BE
:100B20007F916F915F912F911F900F900FBE0F904B
:100B300018952FEF89E698E1215080409040E1F729
:100B400000C000001092C50087E68093C4006EE0EC
:100B500070E081E090E00E943E06EC01892B09F0F4
:100B600064C088E18093C10086E08093C2006AE29D
:100B700075E083E195E00E948E0790939108809341
:100B800090088EE391E00E94D807259A60E072E019
:100B900080E996E00E948F00892B21F087E491E0A4
:100BA0000E94D80762E070E084E296E00E9455005F
:100BB000892B21F08BE591E00E94D80702E020E02C
:100BC00032E044E254E060E070E08BEE94E00E949A
:100BD000A4001816190624F081E791E00E94D807B6
:100BE00001E020E032E044E252E060E070E08FEFAC
:100BF00094E00E94A4001816190624F087E891E0FA
:100C00000E94D8070E948402892B21F08EE991E08E
:100C10000E94D8070E94F500892B21F080EB91E01B
:100C20000E94D80780E090E0089588E98093C10091
:100C300086E08093C20067E375E083E195E00E945F
:100C40008E07FC019093910880939008D183C08314
:100C5000789497CFAA1BBB1B51E107C0AA1FBB1FEB
:100C6000A617B70710F0A61BB70B881F991F5A9538
:100C7000A9F780959095BC01CD0108950F931F931E
:100C8000CF93DF93869F8001879F100D969F100D55
:100C90001124C8010E945A06EC01009729F0A8010E
:100CA00060E070E00E948707CE01DF91CF911F9135
:100CB0000F9108950F931F93CF93DF939C01029799
:100CC00010F422E030E0E0919208F091930880E087
:100CD00090E0A0E0B0E0309791F4009709F448C0AC
:100CE000821B930B84309105D0F58A819B8161151D
:100CF000710581F1FB0193838283FE0111C0408164
:100D000051810281138142175307D8F042175307CC
:100D100099F4109761F012960C93129713961C9306
:100D20003296CF01DF91CF911F910F9108950093DB
:100D3000920810939308F4CF009751F04817590781
:100D400038F0AC01DB01CA01BD01DF01F801C3CFFE
:100D5000EF01F9CF9093930880939208CECFFE01D4
:100D6000E80FF91F21933193029799838883D9CF94
:100D70008091940890919508892B41F4809102010B
:100D800090910301909395088093940880910001BD
:100D900090910101009741F48DB79EB740910401F5
:100DA00050910501841B950B409194085091950832
:100DB0004817590708F0B5CF841B950B8217930786
:100DC00008F4AFCFB9016E5F7F4F8617970708F41D
:100DD000A8CF640F751F7093950860939408FA016B
:100DE000219331939ECFCF93DF939C010097D9F04D
:100DF000FC01329713821282C0919208D09193081D
:100E0000209709F058C080819181280F391F809167
:100E10009408909195088217930709F06DC0F0939C
:100E20009508E0939408DF91CF910895AE17BF071E
:100E300008F048C0CD0112960D90BC91A02D1097DE
:100E4000A9F7DC011396FC93EE9312974D915D91F7
:100E50009D01240F351FE217F30781F420813181B2
:100E60002E5F3F4F240F351FDC0111963C932E93CC
:100E70002281338113963C932E931297E0E0F0E0A9
:100E80008A819B810097E9F5DE018D919D918A0F02
:100E90009B1F20919408309195082817390719F65F
:100EA000309791F51092930810929208D09395087C
:100EB000C0939408B8CFDE0180E090E0CE17DF0742
:100EC00008F4B8CFB383A28340815181240F351F2A
:100ED000A217B30771F44E5F5F4F2D913C911197AC
:100EE000240F351F3183208312962D913C9133833B
:100EF0002283009709F0A5CFF0939308E09392081E
:100F000092CFFE01EC01BCCF13821282CFCFDC0165
:100F100001C06D9341505040E0F708950F931F9327
:100F2000CF93DF93EC018B01892B51F4672B41F4B4
:100F3000E0E0F0E0CF01DF91CF911F910F91089594
:100F40006EE070E081E090E00E943E06FC01892B9B
:100F500079F380E883830115110571F01387028707
:100F600081E883838091960890919708892B21F4DA
:100F7000F0939708E09396082097E1F2D187C08715
:100F80008381826083838091980890919908892B4E
:100F900089F6F0939908E093980880919A089091C7
:100FA0009B08892B39F6F0939B08E0939A08C2CFEF
:100FB0000F931F93CF93DF93E0919808F0919908D6
:100FC000238100E010E021FD0EC00FEF1FEFC801EC
:100FD000DF91CF911F910F9108950995892B11F001
:100FE0000FEF1FEFCE01EC0189916091980870918D
:100FF0009908DB011896ED91FC918111EECF8AE002
:0C1000000995892B21F3E1CFF894FFCF74
:10100C0000009C0820007377697463682065727215
:10101C006F72006C65645F6F6E5F7468726561649B
:10102C0000736C6565702070726F626C656D006C1E
:10103C0065645F6F66665F74687265616400737483
:10104C00617274696E670069646C6520746872659E
:10105C0061642070726F626C656D0074687265619A
:10106C0064732061727261792070726F626C656D4D
:10107C00006C65645F6F6E5F74687265616420708C
:10108C00726F626C656D006C65645F6F66665F7431
:10109C0068726561642070726F626C656D00696E58
:1010AC00746572727570742070726F626C656D000D
:1010BC007374617274207363686564756C657220F7
:0810CC0070726F626C656D002B
:00000001FF
