:100000000C9434000C9451000C9451000C94510049
:100010000C9451000C9451000C9451000C9451001C
:100020000C9451000C9451000C9451000C9451000C
:100030000C9451000C9483050C9451000C945100C5
:100040000C9451000C9451000C9449050C945100EF
:100050000C9451000C9451000C9451000C945100DC
:100060000C9451000C94510011241FBECFEFD8E026
:10007000DEBFCDBF11E0A0E0B1E0ECE5F0E102C0F1
:1000800005900D92A43CB107D9F726E0A4ECB1E0AD
:1000900001C01D92AF36B207E1F70E94B5050C947E
:1000A0002C080C940000CF93DF939C018091E90110
:1000B0009091EA013093EA012093E901281739076A
:1000C00009F442C0009789F166E3689FA001699F27
:1000D000500D1124465351098091F3019091F40180
:1000E000840F951F64EC71E021153105D1F0A091CA
:1000F000F301B091F40146E3429FF001439FF00DFC
:100100001124F697EA0FFB1FBF01C3A94091EF012D
:100110005091F00120E030E02417350749F421E048
:1001200024ABDF91CF910C94D50384EC91E0DACF2E
:10013000D396DC91D397CD1303C0D4961C92D49759
:100140002F5F3F4FD696E8CF80E090E0DF91CF91D0
:1001500008959C01AB01892B99F1672B89F180915E
:10016000F3019091F401892B59F58091F10190915F
:10017000F2016091EF017091F001862B972B609155
:10018000EB017091EC01862B972B0097C9F430930B
:10019000F4012093F3015093F2014093F101109286
:1001A000F0011092EF0160E070E0F90116A615A6CB
:1001B0006F5F7F4F2A5C3F4F46175707B1F708958F
:1001C00081E090E00895EF92FF920F93CF93DF9339
:1001D000EC01DA017901892B09F447C0109709F481
:1001E00044C08FEF232B09F441C0800F8E3FE8F508
:1001F0008091EB019091EC01892BB9F52091EF01F1
:100200003091F0018091F1019091F20128173907A6
:1002100060F546E3429FC001439F900D1124E09199
:10022000F301F091F401E80FF91FF6A2E5A2D0A7BF
:10023000C7A361A772A7B4A7A3A781E090E096A780
:1002400085A72F5F3F4FC90130AB27A712AA11AA7C
:1002500003AB14AA15AA3093F0012093EF01DF91AC
:10026000CF910F91FF90EF9008958FEF9FEFF7CF11
:100270006F927F928F929F92AF92BF92CF92DF92B6
:10028000EF92FF920F931F93CF93DF938091EB0137
:100290009091EC01892B09F09CC084EC91E00E94C4
:1002A000410300E010E0A12CB12C8091EF0190916E
:1002B000F001A816B90678F181E090E09093EC0186
:1002C0008093EB0116E34091EF015091F001E09132
:1002D000F301F091F401DF0160E080E0C12CD12C4A
:1002E00020E030E024173507E9F5811531F0611180
:1002F00056C0E6012196D7FF04C020E0C22F80E05F
:10030000D82FCE010E9453000196E9F686E091E0D5
:100310000E94E507D8CF8091F3019091F401800FFE
:10032000911F0E944103380126E3620E711C892B44
:1003300009F04FC0E091F301F091F401E00FF11FDB
:10034000E1A4F2A407A110A545A156A163A574A537
:1003500024EC31E0CF010E9458048FEFA81AB80AAC
:100360008301A3CF9D96AD90BC909E97AB2879F06A
:10037000D3969C91D397891770F0981308C0D496A0
:100380008C91D497811549F0892F490161E02F5F45
:100390003F4FD696A7CF6901F2CF892FF8CFE4015E
:1003A0002196189D9001199D300D11242D593F4F14
:1003B000E20FF31FC417D50708F09BCF20813181CE
:1003C0002196232B21F09681891709F494CFF69674
:1003D000F1CF81E090E0DF91CF911F910F91FF90DD
:1003E000EF90DF90CF90BF90AF909F908F907F90D5
:1003F0006F9008958091EB019091EC0108958091A8
:10040000EB019091EC01892B51F08091E9019091E1
:10041000EA0197FD04C080E090E00C94530081E075
:1004200090E008959C0197FD2DC08091EF0190917F
:10043000F0018217930730F18091E9019091EA0170
:100440002115310521F418161906E4F49C0166E320
:10045000629FA001639F500D1124E091F301F09180
:10046000F401E40FF51FF69716A615A6281739070D
:1004700019F080E090E008950E94CD04892BC9F71F
:100480000C94FF0181E090E008959C011816190674
:10049000ACF58091EF019091F0018217930770F114
:1004A0008091F3019091F40146E3429FD001439F74
:1004B000B00D1124D697A80FB91F21E030E09E9609
:1004C0003C932E939D976091E9017091EA01469FBC
:1004D0009001479F300D1124820F931FFC01F69766
:1004E000D3968C9193A9981730F40E94CD04892B50
:1004F00011F40E94FF0180E090E0089581E090E017
:1005000008950C947404CF92DF92EF92FF920F93B0
:100510001F93CF93DF93EC018091EB019091EC015D
:10052000892B09F44BC0C090E901D090EA011C145A
:100530001D040CF043C00E9493047C01892B11F030
:100540000E948F048091ED019091EE0126E32C9D95
:1005500080012D9D100D112406531109E091F30126
:10056000F091F401E00FF11F9C012C0F3D1F8095CD
:1005700090958C179D0700F181E085AB32AB21ABE4
:1005800016A615A60E94FF01D82FC92FE091F301EE
:10059000F091F401E00FF11F15AAEF2811F00E946D
:1005A0008B048D2F9C2FDF91CF911F910F91FF9086
:1005B000EF90DF90CF90089582E0DFCFD1E0C0E0F0
:1005C000F0CFEF92FF920F931F93CF93DF93C091E1
:1005D000EB01D091EC012097C1F08091ED01909159
:1005E000EE0101969093EE018093ED010097A9F042
:1005F000E12CF12C00E010E0C0E0D0E08091EF01B0
:100600009091F00108171907D8F0CE01DF91CF9132
:100610001F910F91FF90EF9008952091EF0130917D
:10062000F001E091F301F091F40141E082179307AA
:10063000F9F255A9523009F445AB0196F696F6CF7A
:10064000E091F301F091F401EE0DFF1D85A98130D9
:1006500091F481A992A92091ED013091EE01281722
:10066000390748F015AA87A590A90E94450281E0A4
:10067000C82F80E0D82F0F5F1F4F86E3E80EF11CD4
:10068000BDCFEF93FF93EFB70F92EF93E82FF92FC2
:100690000F9001920F90019211922192319241920A
:1006A00051926192719281929192A192B192C19272
:1006B000D192E192F192019311932193319341935D
:1006C00051936193719381939193A193B193C1934A
:1006D000D193CE2FDF2FFF91EF91E993F993EF9113
:1006E000FF91F993E993ADB7BEB7A993B883FF9390
:1006F000EF93EC2FFD2FCFB73997CFBFA191B191D9
:10070000C191D191CF93DF93CE2FDF2FE991F88163
:10071000DF91CF9180E090E00895E82FF92FB49613
:1007200000800EBE02900DBE129002900F921F929A
:10073000CE2FDF2FFA91EA91FF93EF93EC2FFD2F4D
:10074000D291C291B291A291929182917291629151
:10075000529142913291229112910291F290E29043
:10076000D290C290B290A290929082907290629039
:100770005290429032902290129002900F920290EA
:100780000FBE0F90EF91FF9180E090E00895CF931E
:10079000DF93D82FC92FCA01FB0109958D2F9C2FFC
:1007A0000E948D03DF91CF910895EF93FF93EFB7F0
:1007B0000F92EF93E82FF92F0F9001920F90019273
:1007C0001192219231924192519261927192819251
:1007D0009192A192B192C192D192E192F192019340
:1007E0001193219331934193519361937193819329
:1007F0009193A193B193C193D193CE2FDF2FFF910A
:10080000EF91E993F993EF91FF91F993E993ADB7E4
:10081000BEB7A993B883FF93EF93EC2FFD2FCFB70B
:100820003997CFBFA191B191C191D191CF93DF936E
:10083000CE2FDF2FE991F881DF91CF91E62FF72FAF
:10084000B49600800EBE02900DBE129002900F92E0
:100850001F92CE2FDF2FFA91EA91FF93EF93EC2FA7
:10086000FD2FD291C291B291A291929182917291F7
:100870006291529142913291229112910291F290A1
:10088000E290D290C290B290A29092908290729098
:1008900062905290429032902290129002900F9269
:1008A00002900FBE0F90EF91FF9180E090E00895CD
:1008B000EF92FF920F931F93FC0141505109640F77
:1008C000751F74A363A387EC93E092A381A3218F88
:1008D000328F078B108FE58AF68A80E090E01F91B7
:1008E0000F91FF90EF900895E4E6F0E08081877F1C
:1008F000808385E080938100EFE6F0E08081816075
:1009000080838EEF9FEF909385008093840078948E
:1009100080E090E00895789480E090E00895F89465
:1009200080E090E008958FB7082E000C990B97FB9C
:10093000882780F990E008959091F6019F3F99F003
:100940008FB787FB222720F9911103C087FF01C0D1
:10095000F8942093F5018091F6018F5F8093F60162
:1009600080E090E0089581E090E008958091F601A4
:10097000811581F09091F50181508093F6018111EC
:1009800002C0911103C080E090E008951092F5013B
:100990007894F9CF81E090E0089581E090E0209193
:1009A000F601211102C080E090E008950E949C04AD
:1009B00083E191E00E94E5070E94B6042D9A84EF3E
:1009C00091E00E948302892B89F381E291E00E94E9
:1009D000E507ECCF0E949C0480E391E00E94E507CC
:1009E0000E94B6042D988CEB92E00E948302892B22
:1009F00089F38FE391E00E94E507ECCFCF93C82FF6
:100A00008FEF9FEF6115710569F0CA3019F48DE021
:100A10000E94FE048091C00085FFFCCFC093C600F9
:100A200080E090E0CF910895892B41F08091C00043
:100A300087FFFCCF8091C60090E008958FEF9FEF75
:100A40000895009719F1E0916306F0916406019012
:100A5000F081E02D309719F40C94140500002285E4
:100A600033858485958528173907C1F3DF01A20FE7
:100A7000B31F4C91C90101966AE070E00E943A06EA
:100A800093878287842F440F990B08958FEF9FEFF0
:100A900008950F920FB60F921F9211242F935F9318
:100AA0006F937F938F939F93AF93BF93EF93FF9336
:100AB000E0916306F09164060190F081E02D30979B
:100AC00099F08091C00087FFFCCF2091C6008485FB
:100AD0009585DF01A80FB91F2C9301966AE070E09D
:100AE0000E943A0695878487FF91EF91BF91AF915D
:100AF0009F918F917F916F915F912F911F900F9098
:100B00000FBE0F9018951F920F920FB60F921124DF
:100B10002F933F934F935F936F937F938F939F9305
:100B2000AF93BF93EF93FF938EEF9FEF909385006A
:100B3000809384000E94FA01009731F00E94E10244
:100B4000009711F00E94FF01FF91EF91BF91AF91CB
:100B50009F918F917F916F915F914F913F912F91D5
:100B60000F900FBE0F901F9018952FEF89E698E118
:100B7000215080409040E1F700C000001092C50075
:100B800087E68093C4006EE070E081E090E00E9410
:100B90004E068C01892B09F058C088E18093C10072
:100BA00086E08093C20064E175E08EEF94E00E94DD
:100BB000980790936406809363068EE491E00E9408
:100BC000E507259A62E070E087EF95E00E94A900B2
:100BD000892B21F087E591E00E94E50702E020E003
:100BE00032E047EF53E060E070E086ED94E00E9471
:100BF000E3001816190624F08DE691E00E94E5073F
:100C000001E020E032E047EF51E060E070E08AEE82
:100C100094E00E94E3001816190624F083E891E09E
:100C20000E94E5070E948102892B21F08AE991E068
:100C30000E94E5070E943801892B21F08CEA91E09F
:100C40000E94E50780E090E0089588E98093C10064
:100C500086E08093C20061E275E08EEF94E00E942E
:100C60009807EC01909364068093630619830883C8
:100C70007894A3CFAA1BBB1B51E107C0AA1FBB1FBF
:100C8000A617B70710F0A61BB70B881F991F5A9518
:100C9000A9F780959095BC01CD0108950F931F93FE
:100CA000CF93DF93869F8001879F100D969F100D35
:100CB0001124C8010E946A06EC01009729F0A801DE
:100CC00060E070E00E949107CE01DF91CF911F910B
:100CD0000F9108950F931F93CF93DF939C01029779
:100CE00010F422E030E0E0916506F091660680E0C5
:100CF00090E0A0E0B0E0309791F4009709F448C08C
:100D0000821B930B84309105D0F58A819B816115FC
:100D1000710581F1FB0193838283FE0111C0408143
:100D200051810281138142175307D8F042175307AC
:100D300099F4109761F012960C93129713961C93E6
:100D40003296CF01DF91CF911F910F9108950093BB
:100D5000650610936606F4CF009751F048175907BF
:100D600038F0AC01DB01CA01BD01DF01F801C3CFDE
:100D7000EF01F9CF9093660680936506CECFFE0112
:100D8000E80FF91F21933193029799838883D9CF74
:100D900040916706509168064115510541F4409114
:100DA00002015091030150936806409367068091B9
:100DB000000190910101009741F48DB79EB76091B9
:100DC000040170910501861B970B4817590708F01D
:100DD000B8CF841B950B8217930708F4B2CFB901E3
:100DE0006E5F7F4F8617970708F4ABCF640F751FB0
:100DF0007093680660936706FA0121933193A1CF3F
:100E0000CF93DF939C010097E9F0FC0132971382A6
:100E10001282C0916506D0916606DE0180E090E006
:100E20002097A1F480819181280F391F8091670656
:100E3000909168068217930709F068C0F0936806DE
:100E4000E0936706DF91CF910895DA01AE17BF07EF
:100E500008F042C012964D915C911397CD01411557
:100E6000510599F7DC011396FC93EE9312974D917F
:100E70005D919D01240F351FE217F30781F4208156
:100E800031812E5F3F4F240F351FDC0111963C93BB
:100E90002E932281338113963C932E931297E0E098
:100EA000F0E08A819B810097B1F5DE018D919D91E3
:100EB0008A0F9B1F20916706309168062817390713
:100EC00009F6309759F51092660610926506D09390
:100ED0006806C0936706B6CFB383A2834081518171
:100EE000240F351FA217B30771F44E5F5F4F2D918A
:100EF0003C911197240F351F3183208312962D9139
:100F00003C9133832283009709F0ACCFF0936606BF
:100F1000E093650697CFFE01EC01C3CF13821282E6
:100F2000D6CFDC0101C06D9341505040E0F70895E9
:100F3000EF92FF920F931F93CF93DF938C017B016E
:100F4000892B51F4672B41F4C0E0D0E0CE01CDB73E
:100F5000DEB7E6E00C941D086EE070E081E090E002
:100F60000E944E06EC01892B79F380E88B83E11413
:100F7000F10471F0FB86EA8681E88B838091690633
:100F800090916A06892B21F4D0936A06C093690672
:100F900001151105D9F2198708878B8182608B832F
:100FA00080916B0690916C06892B81F6D0936C062C
:100FB000C0936B0680916D0690916E06892B31F679
:100FC000D0936E06C0936D06C1CF0F931F93CF933E
:100FD000DF93E0916B06F0916C06238100E010E056
:100FE00021FD0EC00FEF1FEFC801DF91CF911F91C0
:100FF0000F9108950995892B11F00FEF1FEFCE0186
:10100000EC01899160916B0670916C06DB0118967A
:10101000ED91FC918111EECF8AE00995892B21F3A6
:10102000E1CF2A88398848885F846E847D848C84E7
:101030009B84AA84B984C884DF80EE80FD800C8103
:101040001B81AA81B981CE0FD11D0FB6F894DEBFE6
:0C1050000FBECDBFED010895F894FFCF56
:10105C0000006F06200073776974636820657272F4
:10106C006F72006C65645F6F6E5F7468726561644B
:10107C0000736C6565702070726F626C656D310009
:10108C006C65645F6F66665F74687265616400733B
:10109C006C6565702070726F626C656D3200737474
:1010AC00617274696E670074687265616473206143
:1010BC00727261792070726F626C656D006C656420
:1010CC005F6F6E5F7468726561642070726F626CC2
:1010DC00656D006C65645F6F66665F7468726561F0
:1010EC00642070726F626C656D00696E74657272EB
:1010FC007570742070726F626C656D0073746172C0
:10110C0074207363686564756C65722070726F62AD
:04111C006C656D0091
:00000001FF
