:100000000C9434000C9451000C9451000C94510049
:100010000C9451000C9451000C9451000C9451001C
:100020000C9451000C9451000C9451000C9451000C
:100030000C9451000C942A030C9451000C94510020
:100040000C9451000C9451000C944F050C945100E9
:100050000C9451000C9451000C9451000C945100DC
:100060000C9451000C94510011241FBECFEFD8E026
:10007000DEBFCDBF11E0A0E0B1E0ECEEFFE002C0DA
:1000800005900D92AC3AB107D9F728E0ACEAB1E09F
:1000900001C01D92A038B207E1F70E9489050C94B7
:1000A000F4070C9400007894FFCF9C01AB01892BDE
:1000B00099F1672B89F18091040290910502892BB7
:1000C00059F58091020290910302609100027091B3
:1000D0000102862B972B6091FC017091FD01862B0C
:1000E000972B0097C9F43093050220930402509394
:1000F000030240930202109201021092000260E09B
:1001000070E0F90116A615A66F5F7F4F2A5C3F4F7E
:1001100046175707B1F7089581E090E008959C01D4
:10012000CB012115310569F0892B59F03093AF01CE
:100130002093AE017093AD016093AC0180E090E03C
:10014000089581E090E008950F93CF93DF93DC0151
:10015000CA01A901109709F445C0009709F442C0EB
:10016000232B09F43FC02FEF200F2E3FD8F520910D
:10017000FC013091FD01232BA9F520910002309163
:100180000102E0910202F09103022E173F0750F5A1
:10019000E6E3E29FE001E39FD00D1124E091040229
:1001A000F0910502EC0FFD1F56A345A3B0A7A7A32E
:1001B00061A772A794A783A781E090E096A785A77F
:1001C0002F5F3F4FC90130AB27A712AA11AA03AB7B
:1001D00014AA15AA3093010220930002DF91CF9157
:1001E0000F9108958FEF9FEFF9CFAF92BF92CF920B
:1001F000DF92EF92FF920F931F93CF93DF93809143
:10020000FC019091FD01892B09F0DFC085ED91E0A3
:100210000E945C0380EB91E00E945C034091AC0182
:100220005091AD016091AE017091AF01E12CF12CC4
:1002300003E510E025ED31E080EB91E00E947304CE
:1002400000E010E0C12CD12C8091000290910102BD
:10025000C816D906E0F1F89481E090E09093FD0192
:100260008093FC0101E016E34091000250910102ED
:100270006091040270910502FB01DB01C12CD12CBD
:1002800020E030E080E090E08417950709F046C058
:10029000D11409F47BC0C1105CC0C90101969C0156
:1002A00097FD76C03093FB012093FA0118161906CA
:1002B0000CF471C060EB71E085ED91E00E94F003F9
:1002C000019691F686E091E00E94C807CDCF80911B
:1002D000040290910502800F911F0E945C03580157
:1002E00026E3A20EB11C892B09F06FC0E091040235
:1002F000F0910502E00FF11FE1A4F2A407A110A5FF
:1003000045A156A163A574A525ED31E0CF010E945A
:1003100073048FEFC81AD80A850196CF9D96ED9089
:10032000FC909E97EF2881F0D396FC90D397DF1432
:1003300070F0FD1009C0D496EC90D497DF2CE11436
:1003400019F0EC01CC24C3940196D6969DCF9C0164
:10035000F2CFCE0101961C9FD0011D9FB00D11243C
:10036000AD59BF4FA60FB71F8417950708F095CF5B
:10037000ED90FC9011970196EF2831F01696FC90C5
:100380001697DF1409F48BCFD696EECF80E090E07D
:1003900020E030E087CF129FC001139F900D112401
:1003A000C697680F791FDB01D3962C9180E090E00F
:1003B0004817590719F4FB0104AB7ECF33A9231367
:1003C00001C014AA0196F696F3CF81E090E0DF9188
:1003D000CF911F910F91FF90EF90DF90CF90BF9042
:1003E000AF9008958091FC019091FD01892BF1F06F
:1003F0002091FA013091FB0137FD18C065ED71E0E5
:1004000080EB91E02115310579F046E3429FC00170
:10041000439F900D1124C69720910402309105024C
:1004200065ED71E0820F931F0C94F00381E090E082
:1004300008959C0197FD2DC08091000290910102CA
:100440008217930730F18091FA019091FB012115F9
:10045000310521F418161906E4F49C0166E3629F45
:10046000A001639F500D1124E0910402F091050258
:10047000E40FF51FF69716A615A62817390719F0E9
:1004800080E090E008950E94E204892BC9F70C9463
:10049000F20181E090E008959C01181619068CF590
:1004A00080910002909101028217930750F1809190
:1004B00004029091050246E3429FF001439FF00D34
:1004C0001124F697E80FF91F21E030E036A725A7A1
:1004D0006091FA017091FB01469F9001479F300D9A
:1004E0001124820F931F23A9FC0183A9821730F4E2
:1004F0000E94E204892B11F40E94F20180E090E056
:10050000089581E090E008950C948F04CF92DF92DB
:10051000EF92FF920F931F93CF93DF937C01809113
:10052000FC019091FD01892BE1F1C090FA01D0907E
:10053000FB011C141D04ACF50E94A604EC01892BE0
:1005400009F0F89486E38C9D80018D9D100D112497
:1005500006531109E0910402F0910502E00FF11F2A
:1005600081E085AB8091FE019091FF018E0D9F1D72
:1005700092AB81AB16A615A60E94F201E09104028F
:10058000F0910502E00FF11F15AACD2B09F0789428
:10059000DF91CF911F910F91FF90EF90DF90CF905F
:1005A000089581E090E0F4CF0F931F93CF93DF93F2
:1005B0008091FC019091FD01009721F18091FE0155
:1005C0009091FF0101969093FF018093FE010097A7
:1005D00061F42091000230910102E0910402F09157
:1005E000050241E08217930791F400E010E0C0E0BB
:1005F000D0E080E090E02091000230910102C2172B
:10060000D30760F0DF91CF911F910F91089555A905
:10061000523009F445AB0196F696E4CFE09104021E
:10062000F0910502E00FF11F25A9213079F421A9ED
:1006300032A94091FE015091FF014217530730F05B
:1006400087A590A90E944C0281E090E021960A5C67
:100650001F4FD1CF1F920F920FB60F9211242F93DD
:100660003F934F935F936F937F938F939F93AF933A
:10067000BF93EF93FF938EEF9FEF9093850080934E
:1006800084008091FC019091FD01009721F00E946F
:10069000D4020E94F201FF91EF91BF91AF919F911F
:1006A0008F917F916F915F914F913F912F910F901B
:1006B0000FBE0F901F901895EF93FF93EFB70F9217
:1006C000EF93E82FF92F0F9001920F900192119262
:1006D00021923192419251926192719281929192C2
:1006E000A192B192C192D192E192F19201931193B0
:1006F000219331934193519361937193819391939A
:10070000A193B193C193D193CE2FDF2FFF91EF919E
:10071000E993F993EF91FF91F993E993ADB7BEB7E0
:10072000A993B883FF93EF93EC2FFD2FCFB73997A1
:10073000CFBFA191B191C191D191CF93DF93CE2F32
:10074000DF2FE991F881DF91CF9180E090E008956B
:10075000E82FF92FB49600800EBE02900DBE1290C5
:1007600002900F921F92CE2FDF2FFA91EA91FF9302
:10077000EF93EC2FFD2FD291C291B291A291929161
:100780008291729162915291429132912291129191
:100790000291F290E290D290C290B290A290929088
:1007A0008290729062905290429032902290129079
:1007B00002900F9202900FBE0F90EF91FF9180E098
:1007C00090E00895CF93DF93D82FC92FCA01FB0182
:1007D00009958D2F9C2F0E94A803DF91CF9108953A
:1007E000EF93FF93EFB70F92EF93E82FF92F0F904E
:1007F00001920F9001921192219231924192519265
:100800006192719281929192A192B192C192D19290
:10081000E192F1920193119321933193419351937A
:100820006193719381939193A193B193C193D19368
:10083000CE2FDF2FFF91EF91E993F993EF91FF9185
:10084000F993E993ADB7BEB7A993B883FF93EF933C
:10085000EC2FFD2FCFB73997CFBFA191B191C191A7
:10086000D191CF93DF93CE2FDF2FE991F881DF91E4
:10087000CF91E62FF72FB49600800EBE02900DBEEA
:10088000129002900F921F92CE2FDF2FFA91EA91D1
:10089000FF93EF93EC2FFD2FD291C291B291A291D1
:1008A00092918291729162915291429132912291F0
:1008B00012910291F290E290D290C290B290A290E6
:1008C00092908290729062905290429032902290D8
:1008D000129002900F9202900FBE0F90EF91FF9135
:1008E00080E090E00895EF92FF920F931F93FC0138
:1008F00041505109640F751F74A363A382EE93E006
:1009000092A381A3218F328F078B108FE58AF68AFD
:1009100080E090E01F910F91FF90EF900895E4E642
:10092000F0E08081877F808385E080938100EFE61F
:10093000F0E08081816080838EEF9FEF909385004F
:1009400080938400789480E090E008958FB7082E1B
:10095000000C990B892F881F8827881F90E0089525
:10096000909107029F3FA1F08FB7282F221F2227C7
:10097000221F911103C087FF01C0F8942093060243
:10098000809107028F5F8093070280E090E00895D6
:1009900081E090E0089580910702811581F09091A7
:1009A0000602815080930702811102C0911103C099
:1009B00080E090E00895109206027894F9CF81E0EB
:1009C00090E0089581E090E020910702211102C09B
:1009D00080E090E008952D9A84EF91E00E948602D5
:1009E000892BC9F383E191E00E94C807F4CF2D98C9
:1009F0008CEB92E00E948602892BC9F383E191E09F
:100A00000E94C807F4CFCF93C82FCB01892B79F070
:100A1000CA3019F48DE00E9403058091C00085FF63
:100A2000FCCFC093C60080E090E0CF9108958FEF97
:100A30009FEFFBCF892B41F08091C00087FFFCCF57
:100A40008091C60090E008958FEF9FEF0895009782
:100A500019F1E0917408F09175080190F081E02D92
:100A6000309719F40C941A0500002285338584858B
:100A7000958528173907C1F3DF01A20FB31F4C91E9
:100A8000C90101966AE070E00E941A069387828786
:100A9000842F440F990B08958FEF9FEF08950F92C5
:100AA0000FB60F921F9211242F935F936F937F9332
:100AB0008F939F93AF93BF93EF93FF93E09174084D
:100AC000F09175080190F081E02D309799F08091B8
:100AD000C00087FFFCCF2091C60084859585DF018B
:100AE000A80FB91F2C9301966AE070E00E941A06C5
:100AF00095878487FF91EF91BF91AF919F918F91DF
:100B00007F916F915F912F911F900F900FBE0F906B
:100B100018952FEF89E698E1215080409040E1F749
:100B200000C000001092C50087E68093C4006EE00C
:100B300070E081E090E00E942E06EC01892B09F024
:100B400064C088E18093C10086E08093C2006AE1BE
:100B500075E083E095E00E947E079093750880938E
:100B6000740881E291E00E94C807259A60E072E073
:100B700084E796E00E948F00892B21F08AE291E0C1
:100B80000E94C80762E070E088E096E00E9455008D
:100B9000892B21F08EE391E00E94C80702E020E05B
:100BA00032E048E054E060E070E08BEE94E00E94B8
:100BB000A4001816190624F084E591E00E94C807E5
:100BC00001E020E032E048E052E060E070E087EFD2
:100BD00094E00E94A4001816190624F08AE691E019
:100BE0000E94C8070E948402892B21F081E891E0CD
:100BF0000E94C8070E94F500892B21F083E991E04B
:100C00000E94C80780E090E0089588E98093C100C1
:100C100086E08093C20067E275E083E095E00E9481
:100C20007E07FC019093750880937408D183C0837C
:100C3000789497CFAA1BBB1B51E107C0AA1FBB1F0B
:100C4000A617B70710F0A61BB70B881F991F5A9558
:100C5000A9F780959095BC01CD0108950F931F933E
:100C6000CF93DF93869F8001879F100D969F100D75
:100C70001124C8010E944A06EC01009729F0A8013E
:100C800060E070E00E947707CE01DF91CF911F9165
:100C90000F9108950F931F93CF93DF939C010297B9
:100CA00010F422E030E0E0917608F091770880E0DF
:100CB00090E0A0E0B0E0309791F4009709F448C0CC
:100CC000821B930B84309105D0F58A819B8161153D
:100CD000710581F1FB0193838283FE0111C0408184
:100CE00051810281138142175307D8F042175307ED
:100CF00099F4109761F012960C93129713961C9327
:100D00003296CF01DF91CF911F910F9108950093FB
:100D1000760810937708F4CF009751F048175907D9
:100D200038F0AC01DB01CA01BD01DF01F801C3CF1E
:100D3000EF01F9CF9093770880937608CECFFE012C
:100D4000E80FF91F21933193029799838883D9CFB4
:100D50008091780890917908892B41F48091020163
:100D60009091030190937908809378088091000115
:100D700090910101009741F48DB79EB74091040115
:100D800050910501841B950B40917808509179088A
:100D90004817590708F0B5CF841B950B82179307A6
:100DA00008F4AFCFB9016E5F7F4F8617970708F43D
:100DB000A8CF640F751F7093790860937808FA01C3
:100DC000219331939ECFCF93DF939C010097D9F06D
:100DD000FC01329713821282C0917608D091770875
:100DE000209709F058C080819181280F391F809188
:100DF0007808909179088217930709F06DC0F093F5
:100E00007908E0937808DF91CF910895AE17BF0776
:100E100008F048C0CD0112960D90BC91A02D1097FE
:100E2000A9F7DC011396FC93EE9312974D915D9117
:100E30009D01240F351FE217F30781F420813181D2
:100E40002E5F3F4F240F351FDC0111963C932E93EC
:100E50002281338113963C932E931297E0E0F0E0C9
:100E60008A819B810097E9F5DE018D919D918A0F22
:100E70009B1F20917808309179082817390719F6B7
:100E8000309791F51092770810927608D0937908F0
:100E9000C0937808B8CFDE0180E090E0CE17DF077E
:100EA00008F4B8CFB383A28340815181240F351F4A
:100EB000A217B30771F44E5F5F4F2D913C911197CC
:100EC000240F351F3183208312962D913C9133835B
:100ED0002283009709F0A5CFF0937708E093760876
:100EE00092CFFE01EC01BCCF13821282CFCFDC0186
:100EF00001C06D9341505040E0F708950F931F9348
:100F0000CF93DF93EC018B01892B51F4672B41F4D4
:100F1000E0E0F0E0CF01DF91CF911F910F910895B4
:100F20006EE070E081E090E00E942E06FC01892BCB
:100F300079F380E883830115110571F01387028727
:100F400081E8838380917A0890917B08892B21F432
:100F5000F0937B08E0937A082097E1F2D187C0876D
:100F600083818260838380917C0890917D08892BA6
:100F700089F6F0937D08E0937C0880917E0890913B
:100F80007F08892B39F6F0937F08E0937E08C2CF63
:100F90000F931F93CF93DF93E0917C08F0917D082E
:100FA000238100E010E021FD0EC00FEF1FEFC8010C
:100FB000DF91CF911F910F9108950995892B11F021
:100FC0000FEF1FEFCE01EC01899160917C087091C9
:100FD0007D08DB011896ED91FC918111EECF8AE03E
:0C0FE0000995892B21F3E1CFF894FFCF95
:100FEC000000800820007377697463682065727252
:100FFC006F7200736C6565702070726F626C656DDA
:10100C00007374617274696E670069646C65207436
:10101C0068726561642070726F626C656D007468D3
:10102C0072656164732061727261792070726F6293
:10103C006C656D006C65645F6F6E5F746872656182
:10104C00642070726F626C656D006C65645F6F66B6
:10105C00665F7468726561642070726F626C656D36
:10106C0000696E746572727570742070726F626C48
:10107C00656D007374617274207363686564756C5C
:0C108C0065722070726F626C656D000070
:00000001FF
