:100000000C9434000C9451000C9451000C94510049
:100010000C9451000C9451000C9451000C9451001C
:100020000C9451000C9451000C9451000C9451000C
:100030000C9451000C9451000C9451000C945100FC
:100040000C9451000C9451000C9450040C945100E9
:100050000C9451000C9451000C9451000C945100DC
:100060000C9451000C94510011241FBECFEFD8E026
:10007000DEBFCDBF11E0A0E0B1E0E6ECFDE002C0E4
:1000800005900D92A439B107D9F723E0A4E9B1E0B6
:1000900001C01D92AA32B207E1F70E948A040C94B3
:1000A000E1060C9400009C01AB01892B99F1672BB0
:1000B00089F18091E8019091E901892B59F58091AE
:1000C000E6019091E7016091E4017091E501862BD2
:1000D000972B6091E0017091E101862B972B00979F
:1000E000C9F43093E9012093E8015093E70140936C
:1000F000E6011092E5011092E40160E070E0F90180
:1001000016A615A66F5F7F4F2A5C3F4F461757070D
:10011000B1F7089581E090E008950F93CF93DF93B6
:10012000DC01CA01A901109709F445C0009709F440
:1001300042C0232B09F43FC02FEF200F2E3FD8F5EC
:100140002091E0013091E101232BA9F52091E401F8
:100150003091E501E091E601F091E7012E173F07AC
:1001600050F5E6E3E29FE001E39FD00D1124E0911A
:10017000E801F091E901EC0FFD1F56A345A3B0A7DC
:10018000A7A361A772A794A783A781E090E096A791
:1001900085A72F5F3F4FC90130AB27A712AA11AA2D
:1001A00003AB14AA15AA3093E5012093E401DF9173
:1001B000CF910F9108958FEF9FEFF9CF9C0197FD9D
:1001C00023C08091E4019091E50182179307E0F04C
:1001D0002115310539F42091DE013091DF0121151F
:1001E000310591F046E3429FC001439F900D1124D9
:1001F000E091E801F091E901E80FF91FF69716A6E2
:1002000015A680E090E0089581E090E008959C01BB
:1002100097FD1BC08091E4019091E501821793073F
:10022000A0F046E3429FC001439F900D1124E0914E
:10023000E801F091E901E80FF91FF69781E090E0FD
:1002400096A785A780E090E0089581E090E008956A
:10025000AF92BF92CF92DF92EF92FF920F931F93D4
:10026000CF93DF938091E0019091E101892B09F018
:10027000C8C081E090E09093E1018093E00189EBB8
:1002800091E00E94AE0200E010E0C12CD12C8091E0
:10029000E4019091E501C816D906A8F101E016E342
:1002A0004091E4015091E5016091E8017091E9010C
:1002B000FB01DB01C12CD12C20E030E080E090E09C
:1002C0008417950709F046C0D11409F47BC0C1100A
:1002D0005CC0C90101969C0197FD76C03093DF0197
:1002E0002093DE01181619060CF471C064E971E060
:1002F00089EB91E00E944203019691F686E091E03D
:100300000E94B506CDCF8091E8019091E901800F60
:10031000911F0E94AE02580126E3A20EB11C892B48
:1003200009F06FC0E091E801F091E901E00FF11FE1
:10033000E1A4F2A407A110A545A156A163A574A547
:1003400029EB31E0CF010E94C5038FEFC81AD80A0C
:1003500085019DCF9D96ED90FC909E97EF2881F0B2
:10036000D396FC90D397DF1470F0FD1009C0D4969B
:10037000EC90D497DF2CE11419F0EC01CC24C39459
:100380000196D6969DCF9C01F2CFCE0101961C9F7F
:10039000D0011D9FB00D1124AD59BF4FA60FB71F3F
:1003A0008417950708F095CFED90FC901197019672
:1003B000EF2831F01696FC901697DF1409F48BCFD6
:1003C000D696EECF80E090E020E030E087CF129F1D
:1003D000C001139F900D1124C697680F791FDB0190
:1003E000D3962C9180E090E04817590719F4FB014F
:1003F00004AB7ECF33A9231301C014AA0196F6964D
:10040000F3CF81E090E0DF91CF911F910F91FF90AA
:10041000EF90DF90CF90BF90AF9008958091E00172
:100420009091E101892B09F12091DE013091DF01EA
:1004300037FD1BC069EB71E084E991E021153105BE
:1004400079F046E3429FC001439F900D1124C69767
:100450002091E8013091E90169EB71E0820F931F6F
:100460000E94420380E090E0089581E090E00895CA
:100470000C94E103CF93DF93AC018091E001909164
:10048000E101892B29F18091DE019091DF0118169D
:100490001906F4F466E3689F9001699F300D1124FA
:1004A00026533109C091E801D091E901C20FD31F51
:1004B00021E02DAB2091E2013091E301240F351FA3
:1004C0003AAB29AB0E94DE001DAADF91CF910895BF
:1004D00081E090E0FACFEF92FF920F931F93CF93BA
:1004E000DF938091E0019091E1010097B1F0C0911C
:1004F000E201D091E3012196D093E301C093E201A0
:10050000E12CF12C00E010E080E090E02091E4018B
:100510003091E5010217130738F0DF91CF911F9159
:100520000F91FF90EF900895E091E801F091E901BB
:10053000EE0DFF1D25A9211559F021A932A9C217D9
:10054000D30730F087A590A90E94070181E090E0D1
:100550000F5F1F4F26E3E20EF11CD8CFEF93FF93FE
:10056000EFB70F92EF93E82FF92F0F9001920F90B2
:100570000192119221923192419251926192719223
:1005800081929192A192B192C192D192E192F19213
:1005900001931193219331934193519361937193FB
:1005A00081939193A193B193C193D193CE2FDF2FD8
:1005B000FF91EF91E993F993EF91FF91F993E9930B
:1005C000ADB7BEB7A993B883FF93EF93EC2FFD2F80
:1005D000CFB73997CFBFA191B191C191D191CF93AD
:1005E000DF93CE2FDF2FE991F881DF91CF9180E06B
:1005F00090E00895E82FF92FB49600800EBE029087
:100600000DBE129002900F921F92CE2FDF2FFA9103
:10061000EA91FF93EF93EC2FFD2FD291C291B2910B
:10062000A2919291829172916291529142913291F2
:10063000229112910291F290E290D290C290B290E7
:10064000A2909290829072906290529042903290DA
:100650002290129002900F9202900FBE0F90EF9195
:10066000FF9180E090E00895CF93DF93D82FC92FBA
:10067000CA01FB0109958D2F9C2F0E94FA02DF9180
:10068000CF910895EF93FF93EFB70F92EF93E82F79
:10069000F92F0F9001920F900192119221923192B5
:1006A000419251926192719281929192A192B192F2
:1006B000C192D192E192F1920193119321933193DE
:1006C000419351936193719381939193A193B193CA
:1006D000C193D193CE2FDF2FFF91EF91E993F9933F
:1006E000EF91FF91F993E993ADB7BEB7A993B883A2
:1006F000FF93EF93EC2FFD2FCFB73997CFBFA19189
:10070000B191C191D191CF93DF93CE2FDF2FE9919A
:10071000F881DF91CF91E62FF72FB49600800EBEBF
:1007200002900DBE129002900F921F92CE2FDF2FDB
:10073000FA91EA91FF93EF93EC2FFD2FD291C291A2
:10074000B291A29192918291729162915291429151
:100750003291229112910291F290E290D290C29045
:10076000B290A29092908290729062905290429039
:1007700032902290129002900F9202900FBE0F9032
:10078000EF91FF9180E090E00895EF92FF920F9338
:100790001F93FC0141505109640F751F74A363A39B
:1007A00084E393E092A381A3218F328F078B108F74
:1007B000E58AF68A80E090E01F910F91FF90EF901C
:1007C0000895089583E191E00E94B5062D9A2FEFD8
:1007D00083ED90E3215080409040E1F700C000009D
:1007E0000E940E02EFCF81E291E00E94B5062D98A3
:1007F0002FEF83ED90E3215080409040E1F700C05F
:1008000000000E940E02EFCFCF93C82FCB01892B9F
:1008100079F0CA3019F48DE00E9404048091C00080
:1008200085FFFCCFC093C60080E090E0CF91089593
:100830008FEF9FEFFBCF892B41F08091C00087FFA6
:10084000FCCF8091C60090E008958FEF9FEF089550
:10085000009719F1E0911E03F0911F030190F081C0
:10086000E02D309719F40C941B0400002285338589
:100870008485958528173907C1F3DF01A20FB31FBF
:100880004C91C90101966AE070E00E9407059387C8
:100890008287842F440F990B08958FEF9FEF08955F
:1008A0000F920FB60F921F9211242F935F936F93A5
:1008B0007F938F939F93AF93BF93EF93FF93E091B9
:1008C0001E03F0911F030190F081E02D309799F005
:1008D0008091C00087FFFCCF2091C600848595855C
:1008E000DF01A80FB91F2C9301966AE070E00E9407
:1008F000070595878487FF91EF91BF91AF919F91F5
:100900008F917F916F915F912F911F900F900FBEEC
:100910000F9018952FEF89E698E121508040904084
:10092000E1F700C000001092C50087E68093C40084
:100930006EE070E081E090E00E941B05EC01892BE5
:1009400009F050C088E18093C10086E08093C20026
:100950006BE174E084E094E00E946B0690931F03C7
:1009600080931E0380E391E00E94B506259A62E021
:1009700070E082EB92E00E945300892B21F089E322
:1009800091E00E94B50601E024E630E04EE452E03A
:1009900060E070E082EE93E00E948D001816190668
:1009A00024F08FE491E00E94B50601E024E630E0F7
:1009B0004AEE51E060E070E083EF93E00E948D002A
:1009C0001816190624F085E691E00E94B5060E94EB
:1009D0002801892B21F08CE791E00E94B50680E088
:1009E00090E0089588E98093C10086E08093C2007A
:1009F00068E274E084E094E00E946B06FC0190934E
:100A00001F0380931E03D183C0837894ABCFAA1BAE
:100A1000BB1B51E107C0AA1FBB1FA617B70710F0E9
:100A2000A61BB70B881F991F5A95A9F7809590951B
:100A3000BC01CD0108950F931F93CF93DF93869F41
:100A40008001879F100D969F100D1124C8010E94F0
:100A50003705EC01009729F0A80160E070E00E94E2
:100A60006406CE01DF91CF911F910F9108950F93EE
:100A70001F93CF93DF939C01029710F422E030E0A4
:100A8000E0912003F091210380E090E0A0E0B0E04D
:100A9000309791F4009709F448C0821B930B84307F
:100AA0009105D0F58A819B816115710581F1FB016A
:100AB00093838283FE0111C04081518102811381A1
:100AC00042175307D8F04217530799F4109761F073
:100AD00012960C93129713961C933296CF01DF91C6
:100AE000CF911F910F91089500932003109321033C
:100AF000F4CF009751F04817590738F0AC01DB01EB
:100B0000CA01BD01DF01F801C3CFEF01F9CF909316
:100B1000210380932003CECFFE01E80FF91F21931C
:100B20003193029799838883D9CF80912203909142
:100B30002303892B41F4809102019091030190934A
:100B4000230380932203809100019091010100977B
:100B500041F48DB79EB74091040150910501841B6B
:100B6000950B40912203509123034817590708F031
:100B7000B5CF841B950B8217930708F4AFCFB9014B
:100B80006E5F7F4F8617970708F4A8CF640F751F15
:100B90007093230360932203FA01219331939ECF34
:100BA000CF93DF939C010097D9F0FC013297138219
:100BB0001282C0912003D0912103209709F058C0E0
:100BC00080819181280F391F809122039091230306
:100BD0008217930709F06DC0F0932303E09322037B
:100BE000DF91CF910895AE17BF0708F048C0CD013F
:100BF00012960D90BC91A02D1097A9F7DC011396C9
:100C0000FC93EE9312974D915D919D01240F351F3A
:100C1000E217F30781F4208131812E5F3F4F240FCB
:100C2000351FDC0111963C932E932281338113965C
:100C30003C932E931297E0E0F0E08A819B8100972D
:100C4000E9F5DE018D919D918A0F9B1F2091220372
:100C5000309123032817390719F6309791F5109230
:100C6000210310922003D0932303C0932203B8CF13
:100C7000DE0180E090E0CE17DF0708F4B8CFB38341
:100C8000A28340815181240F351FA217B30771F44D
:100C90004E5F5F4F2D913C911197240F351F31838B
:100CA000208312962D913C9133832283009709F083
:100CB000A5CFF0932103E093200392CFFE01EC0136
:100CC000BCCF13821282CFCFDC0101C06D934150A3
:100CD0005040E0F708950F931F93CF93DF93EC01FB
:100CE0008B01892B51F4672B41F4E0E0F0E0CF0158
:100CF000DF91CF911F910F9108956EE070E081E038
:100D000090E00E941B05FC01892B79F380E8838326
:100D10000115110571F01387028781E883838091A3
:100D2000240390912503892B21F4F0932503E0936C
:100D300024032097E1F2D187C08783818260838377
:100D40008091260390912703892B89F6F09327033E
:100D5000E09326038091280390912903892B39F68B
:100D6000F0932903E0932803C2CF0F931F93CF93EF
:100D7000DF93E0912603F0912703238100E010E048
:100D800021FD0EC00FEF1FEFC801DF91CF911F9122
:100D90000F9108950995892B11F00FEF1FEFCE01E8
:100DA000EC0189916091260370912703DB0118966D
:100DB000ED91FC918111EECF8AE00995892B21F309
:060DC000E1CFF894FFCF23
:100DC60000002A03200073776974636820657272D5
:100DD6006F72006C65645F6F6E5F746872656164E4
:100DE600006C65645F6F66665F7468726561640057
:100DF6007374617274696E67007468726561647396
:100E06002061727261792070726F626C656D006C20
:100E160065645F6F6E5F7468726561642070726F7F
:100E2600626C656D006C65645F6F66665F746872A0
:100E36006561642070726F626C656D0073746172B7
:100E460074207363686564756C65722070726F6276
:040E56006C656D005A
:00000001FF
