:100000000C9434000C9451000C9451000C94510049
:100010000C9451000C9451000C9451000C9451001C
:100020000C9451000C9451000C9451000C9451000C
:100030000C9451000C9451000C9451000C945100FC
:100040000C9451000C9451000C944B050C945100ED
:100050000C9451000C9451000C9451000C945100DC
:100060000C9451000C94510011241FBECFEFD8E026
:10007000DEBFCDBF11E0A0E0B1E0ECEEFFE002C0DA
:1000800005900D92A439B107D9F723E0A4E9B1E0B6
:1000900001C01D92A033B207E1F70E9485050C94C0
:1000A000F4070C9400007894FFCF9C01AB01892BDE
:1000B00099F1672B89F18091EC019091ED01892BE9
:1000C00059F58091EA019091EB016091E8017091FE
:1000D000E901862B972B6091E4017091E501862B55
:1000E000972B0097C9F43093ED012093EC015093C6
:1000F000EB014093EA011092E9011092E80160E0FF
:1001000070E0F90116A615A66F5F7F4F2A5C3F4F7E
:1001100046175707B1F7089581E090E008950097DA
:1001200071F06115710559F09093970180939601D4
:10013000709395016093940180E090E0089581E0D0
:1001400090E00895EF92FF920F93CF93DF93EC012D
:10015000DA017901892B09F447C0109709F444C0EA
:100160008FEF232B09F441C0800F8E3FE8F580917B
:10017000E4019091E501892BB9F52091E8013091D6
:10018000E9018091EA019091EB012817390760F5A8
:1001900046E3429FC001439F900D1124E091EC0182
:1001A000F091ED01E80FF91FF6A2E5A2D0A7C7A3D1
:1001B00061A772A7B4A7A3A781E090E096A785A73F
:1001C0002F5F3F4FC90130AB27A712AA11AA03AB7B
:1001D00014AA15AA3093E9012093E801DF91CF9189
:1001E0000F91FF90EF9008958FEF9FEFF7CF2F9231
:1001F0003F924F925F926F927F928F929F92AF92B7
:10020000BF92CF92DF92EF92FF920F931F93CF9303
:10021000DF938091E4019091E501892B09F0DDC025
:100220008DEB91E00E94510388E991E00E94510317
:1002300040919401509195016091960170919701C0
:10024000E12CF12C03E510E02DEB31E088E991E0A1
:100250000E94680400E010E0812C912C8091E8015C
:100260009091E9018816990608F44FC0F89481E04E
:1002700090E09093E5018093E40101E016E3409162
:10028000E8015091E9012091EC013091ED01D90193
:10029000F901812C912CA12CB12C80E090E08417E5
:1002A000950709F059C0911409F485C0811069C0FF
:1002B000E50121966E01D7FD82C0D092E301C09284
:1002C000E20168E971E01C161D069CF41C9DB0015A
:1002D0001D9D700D112466537109620F731FFB0180
:1002E00023A980E090E04817590709F06BC0FB0193
:1002F00004AB8DEB91E00E94E503019609F0BFCFBE
:1003000086E091E00E94AD07BACF8091EC01909118
:10031000ED01800F911F0E945103180126E3220E68
:10032000311C892B09F059C0E091EC01F091ED01ED
:10033000E00FF11FE1A4F2A407A110A545A156A169
:1003400063A574A52DEB31E0CF010E9468048FEF07
:10035000881A980A810182CF65A576A5672B61F07E
:1003600063A9961660F0691107C074A9962E7115DD
:1003700019F03C01882483940196F69690CF5C0195
:10038000F4CFE3012196169DF001179DF00D112485
:10039000ED59FF4FE20FF31FC417D50708F088CFC0
:1003A000808191812196892B21F08681981609F40C
:1003B00081CFF696F1CFE0E0CE2FF0E0DF2FC12C19
:1003C000D12C7BCFD3963C91D397231303C0D496E3
:1003D0001C92D4970196D69686CF81E090E0DF916B
:1003E000CF911F910F91FF90EF90DF90CF90BF9032
:1003F000AF909F908F907F906F905F904F903F90C5
:100400002F9008958091E4019091E50108958091E5
:10041000E4019091E501892BF1F02091E201309106
:10042000E30137FD18C06DEB71E088E991E021151B
:10043000310579F046E3429FC001439F900D11249E
:10044000C6972091EC013091ED016DEB71E0820FC8
:10045000931F0C94E50381E090E008959C0197FDC3
:100460002DC08091E8019091E9018217930730F146
:100470008091E2019091E3012115310521F41816D4
:100480001906E4F49C0166E3629FA001639F500D8E
:100490001124E091EC01F091ED01E40FF51FF697C6
:1004A00016A615A62817390719F080E090E00895E0
:1004B0000E94D504892BC9F70C94070281E090E0D3
:1004C00008959C01181619068CF58091E801909109
:1004D000E9018217930750F18091EC019091ED01B1
:1004E00046E3429FF001439FF00D1124F697E80F79
:1004F000F91F21E030E036A725A76091E201709155
:10050000E301469F9001479F300D1124820F931FF6
:1005100023A9FC0183A9821730F40E94D504892BFA
:1005200011F40E94070280E090E0089581E090E0DD
:1005300008950C948404CF92DF92EF92FF920F9370
:100540001F93CF93DF937C018091E4019091E501AB
:10055000892B09F443C0C090E201D090E3011C1440
:100560001D04E4F50E949B048C01892B09F0F8948A
:100570008091E6019091E70126E32C9DE0012D9DFD
:10058000D00D1124E697E091EC01F091ED01EC0F14
:10059000FD1F9C012E0D3F1D809590958E159F058A
:1005A000D8F081E085AB32AB21AB16A615A60E9430
:1005B0000702E091EC01F091ED01EC0FFD1F15AA8F
:1005C000012B09F07894DF91CF911F910F91FF904B
:1005D000EF90DF90CF90089582E0E4CF81E090E04B
:1005E000F2CFEF92FF920F931F93CF93DF93C091BF
:1005F000E401D091E5012097C1F08091E60190914E
:10060000E70101969093E7018093E6010097A9F036
:10061000E12CF12C00E010E0C0E0D0E08091E80196
:100620009091E90108171907D8F0CE01DF91CF9119
:100630001F910F91FF90EF9008952091E801309164
:10064000E901E091EC01F091ED0141E0821793079F
:10065000F9F255A9523009F445AB0196F696F6CF5A
:10066000E091EC01F091ED01EE0DFF1D85A98130C7
:1006700091F481A992A92091E6013091E701281710
:10068000390748F015AA87A590A90E94610281E068
:10069000C82F80E0D82F0F5F1F4F86E3E80EF11CB4
:1006A000BDCFEF93FF93EFB70F92EF93E82FF92FA2
:1006B0000F9001920F9001921192219231924192EA
:1006C00051926192719281929192A192B192C19252
:1006D000D192E192F192019311932193319341933D
:1006E00051936193719381939193A193B193C1932A
:1006F000D193CE2FDF2FFF91EF91E993F993EF91F3
:10070000FF91F993E993ADB7BEB7A993B883FF936F
:10071000EF93EC2FFD2FCFB73997CFBFA191B191B8
:10072000C191D191CF93DF93CE2FDF2FE991F88143
:10073000DF91CF9180E090E00895E82FF92FB496F3
:1007400000800EBE02900DBE129002900F921F927A
:10075000CE2FDF2FFA91EA91FF93EF93EC2FFD2F2D
:10076000D291C291B291A291929182917291629131
:10077000529142913291229112910291F290E29023
:10078000D290C290B290A290929082907290629019
:100790005290429032902290129002900F920290CA
:1007A0000FBE0F90EF91FF9180E090E00895CF93FE
:1007B000DF93D82FC92FCA01FB0109958D2F9C2FDC
:1007C0000E949D03DF91CF910895EF93FF93EFB7C0
:1007D0000F92EF93E82FF92F0F9001920F90019253
:1007E0001192219231924192519261927192819231
:1007F0009192A192B192C192D192E192F192019320
:100800001193219331934193519361937193819308
:100810009193A193B193C193D193CE2FDF2FFF91E9
:10082000EF91E993F993EF91FF91F993E993ADB7C4
:10083000BEB7A993B883FF93EF93EC2FFD2FCFB7EB
:100840003997CFBFA191B191C191D191CF93DF934E
:10085000CE2FDF2FE991F881DF91CF91E62FF72F8F
:10086000B49600800EBE02900DBE129002900F92C0
:100870001F92CE2FDF2FFA91EA91FF93EF93EC2F87
:10088000FD2FD291C291B291A291929182917291D7
:100890006291529142913291229112910291F29081
:1008A000E290D290C290B290A29092908290729078
:1008B00062905290429032902290129002900F9249
:1008C00002900FBE0F90EF91FF9180E090E00895AD
:1008D000EF92FF920F931F93FC0141505109640F57
:1008E000751F74A363A387ED93E092A381A3218F67
:1008F000328F078B108FE58AF68A80E090E01F9197
:100900000F91FF90EF900895E4E6F0E08081877FFB
:10091000808385E080938100EFE6F0E08081816054
:1009200080838EEF9FEF909385008093840078946E
:1009300080E090E008958FB7082E000C990B97FB8C
:10094000882780F990E008959091EF019F3F99F0FA
:100950008FB787FB222720F9911103C087FF01C0C1
:10096000F8942093EE018091EF018F5F8093EF0167
:1009700080E090E0089581E090E008958091EF019B
:10098000811581F09091EE0181508093EF018111EA
:1009900002C0911103C080E090E008951092EE0132
:1009A0007894F9CF81E090E0089581E090E0209183
:1009B000EF01211102C080E090E0089583E191E011
:1009C0000E94AD072D9A2FEF83ED90E321508040D8
:1009D0009040E1F700C000000E940702EFCF81E2E3
:1009E00091E00E94AD072D982FEF83ED90E3215009
:1009F00080409040E1F700C000000E940702EFCF66
:100A0000CF93C82F8FEF9FEF6115710569F0CA3042
:100A100019F48DE00E9400058091C00085FFFCCF95
:100A2000C093C60080E090E0CF910895892B41F0FB
:100A30008091C00087FFFCCF8091C60090E00895B0
:100A40008FEF9FEF0895009719F1E0912403F09143
:100A500025030190F081E02D309719F40C941605D0
:100A60000000228533858485958528173907C1F3D1
:100A7000DF01A20FB31F4C91C90101966AE070E03B
:100A80000E94020693878287842F440F990B089552
:100A90008FEF9FEF08950F920FB60F921F921124C0
:100AA0002F935F936F937F938F939F93AF93BF9396
:100AB000EF93FF93E0912403F09125030190F081DF
:100AC000E02D309799F08091C00087FFFCCF2091F6
:100AD000C60084859585DF01A80FB91F2C93019668
:100AE0006AE070E00E94020695878487FF91EF918B
:100AF000BF91AF919F918F917F916F915F912F9156
:100B00001F900F900FBE0F9018952FEF89E698E178
:100B1000215080409040E1F700C000001092C500D5
:100B200087E68093C4006EE070E081E090E00E9470
:100B300016068C01892B09F050C088E18093C10012
:100B400086E08093C20066E175E080E095E00E9457
:100B50006007909325038093240380E391E00E9433
:100B6000AD07259A62E070E088EB92E00E945500A4
:100B7000892B21F089E391E00E94AD0701E024E692
:100B800030E044E552E060E070E08EED94E00E94D9
:100B9000A2001816190624F08FE491E00E94AD0718
:100BA00001E024E630E040EF51E060E070E08FEEDD
:100BB00094E00E94A2001816190624F085E691E040
:100BC0000E94AD070E94F700892B21F08CE791E08D
:100BD0000E94AD0780E090E0089588E98093C1000D
:100BE00086E08093C20063E275E080E095E00E94B9
:100BF0006007EC01909325038093240319830883F5
:100C00007894ABCFAA1BBB1B51E107C0AA1FBB1F27
:100C1000A617B70710F0A61BB70B881F991F5A9588
:100C2000A9F780959095BC01CD0108950F931F936E
:100C3000CF93DF93869F8001879F100D969F100DA5
:100C40001124C8010E943206EC01009729F0A80186
:100C500060E070E00E945907CE01DF91CF911F91B3
:100C60000F9108950F931F93CF93DF939C010297E9
:100C700010F422E030E0E0912603F091270380E0B9
:100C800090E0A0E0B0E0309791F4009709F448C0FC
:100C9000821B930B84309105D0F58A819B8161156D
:100CA000710581F1FB0193838283FE0111C04081B4
:100CB00051810281138142175307D8F0421753071D
:100CC00099F4109761F012960C93129713961C9357
:100CD0003296CF01DF91CF911F910F91089500932C
:100CE000260310932703F4CF009751F048175907B4
:100CF00038F0AC01DB01CA01BD01DF01F801C3CF4F
:100D0000EF01F9CF9093270380932603CECFFE0106
:100D1000E80FF91F21933193029799838883D9CFE4
:100D200040912803509129034115510541F4409108
:100D300002015091030150932903409328038091AD
:100D4000000190910101009741F48DB79EB7609129
:100D5000040170910501861B970B4817590708F08D
:100D6000B8CF841B950B8217930708F4B2CFB90153
:100D70006E5F7F4F8617970708F4ABCF640F751F20
:100D80007093290360932803FA0121933193A1CF33
:100D9000CF93DF939C010097E9F0FC013297138217
:100DA0001282C0912603D0912703DE0180E090E0FB
:100DB0002097A1F480819181280F391F8091280309
:100DC000909129038217930709F068C0F0932903D3
:100DD000E0932803DF91CF910895DA01AE17BF07A2
:100DE00008F042C012964D915C911397CD014115C8
:100DF000510599F7DC011396FC93EE9312974D91F0
:100E00005D919D01240F351FE217F30781F42081C6
:100E100031812E5F3F4F240F351FDC0111963C932B
:100E20002E932281338113963C932E931297E0E008
:100E3000F0E08A819B810097B1F5DE018D919D9153
:100E40008A0F9B1F20912803309129032817390707
:100E500009F6309759F51092270310922603D09384
:100E60002903C0932803B6CFB383A2834081518165
:100E7000240F351FA217B30771F44E5F5F4F2D91FA
:100E80003C911197240F351F3183208312962D91A9
:100E90003C9133832283009709F0ACCFF093270372
:100EA000E093260397CFFE01EC01C3CF1382128299
:100EB000D6CFDC0101C06D9341505040E0F708955A
:100EC000EF92FF920F931F93CF93DF938C017B01DF
:100ED000892B51F4672B41F4C0E0D0E0CE01CDB7AF
:100EE000DEB7E6E00C94E5076EE070E081E090E0AC
:100EF0000E941606EC01892B79F380E88B83E114BC
:100F0000F10471F0FB86EA8681E88B8380912A03E5
:100F100090912B03892B21F4D0932B03C0932A03A8
:100F200001151105D9F2198708878B8182608B839F
:100F300080912C0390912D03892B81F6D0932D0362
:100F4000C0932C0380912E0390912F03892B31F6AF
:100F5000D0932F03C0932E03C1CF0F931F93CF9332
:100F6000DF93E0912C03F0912D03238100E010E04A
:100F700021FD0EC00FEF1FEFC801DF91CF911F9130
:100F80000F9108950995892B11F00FEF1FEFCE01F6
:100F9000EC01899160912C0370912D03DB0118966F
:100FA000ED91FC918111EECF8AE00995892B21F317
:100FB000E1CF2A88398848885F846E847D848C8458
:100FC0009B84AA84B984C884DF80EE80FD800C8174
:100FD0001B81AA81B981CE0FD11D0FB6F894DEBF57
:0C0FE0000FBECDBFED010895F894FFCFC7
:100FEC0000003003200073776974636820657272A7
:100FFC006F72006C65645F6F6E5F746872656164BC
:10100C00006C65645F6F66665F746872656164002E
:10101C007374617274696E6700746872656164736D
:10102C002061727261792070726F626C656D006CF8
:10103C0065645F6F6E5F7468726561642070726F57
:10104C00626C656D006C65645F6F66665F74687278
:10105C006561642070726F626C656D00737461728F
:10106C0074207363686564756C65722070726F624E
:04107C006C656D0032
:00000001FF
