:100000000C9434000C9451000C9451000C94510049
:100010000C9451000C9451000C9451000C9451001C
:100020000C9451000C9451000C9451000C9451000C
:100030000C9451000C9451000C9451000C945100FC
:100040000C9451000C9451000C94C7030C94510073
:100050000C9451000C9451000C9451000C945100DC
:100060000C9451000C94510011241FBECFEFD8E026
:10007000DEBFCDBF11E0A0E0B1E0E4EBFCE002C0E8
:1000800005900D92A439B107D9F722E0A4E9B1E0B7
:1000900001C01D92AD3FB207E1F70E9401040C942C
:1000A00058060C9400009C01AB01892B99F1672B39
:1000B00089F18091C1019091C201892B59F58091FC
:1000C000BF019091C0016091BD017091BE01862B6E
:1000D000972B6091BB017091BC01862B972B0097E9
:1000E000C9F43093C2012093C1015093C0014093E1
:1000F000BF011092BE011092BD0160E070E0F901F5
:1001000016A615A66F5F7F4F2D5C3F4F461757070A
:10011000B1F7089581E090E00895EF92FF920F9378
:100120001F93CF93DF93EC01DA01A901892B09F426
:1001300046C0109709F443C08FEF232B09F440C049
:10014000800F8E3FE0F58091BB019091BC01892B1F
:10015000B1F58091BD019091BE012091BF01309118
:10016000C0018217930758F59C012F5F3F4FE3E3CF
:10017000E89F7001E99FF00C1124E091C101F0911A
:10018000C201EE0DFF1DC90130AB27A701AB12AABA
:1001900001E010E016A705A7D0A7C7A361A772A723
:1001A000B4A7A3A756A345A33093BE012093BD01D6
:1001B000DF91CF911F910F91FF90EF9008958FEFF6
:1001C0009FEFF6CF9C0197FD23C08091BD019091D8
:1001D000BE0182179307E0F02115310539F4209113
:1001E000B9013091BA012115310591F043E3429FE5
:1001F000C001439F900D1124E091C101F091C20113
:10020000E80FF91FF39716A615A680E090E0089571
:1002100081E090E008959C0197FD1BC08091BD0195
:100220009091BE0182179307A0F043E3429FC00163
:10023000439F900D1124E091C101F091C201E80F9C
:10024000F91FF39781E090E096A785A780E090E002
:10025000089581E090E00895AF92BF92CF92DF922F
:10026000EF92FF920F931F93CF93DF938091BB0187
:100270009091BC01892B09F0B8C081E090E0909387
:10028000BC018093BB0184E991E00E94260200E05A
:1002900010E0C12CD12C8091BD019091BE01C816F7
:1002A000D90608F441C001E013E32091BD0130916B
:1002B000BE016091C1017091C201DB01FB01C12C43
:1002C000D12C40E050E080E090E08217930709F0E5
:1002D00052C0D11491F3C11063C0CA01019618161F
:1002E00019065CF79093BA018093B901189FA00199
:1002F000199F500D112443535109640F751FFB01C1
:1003000041A980E090E02817390709F063C0FB019C
:1003100002AB84E991E00E94BA02019631F686E0D0
:1003200091E00E942C06C1CF8091C1019091C20141
:10033000800F911F0E942602580123E3A20EB11CD8
:10034000892B09F052C0E091C101F091C201E00F88
:10035000F11FE1A4F2A407A110A545A156A163A530
:1003600074A524E931E0CF010E943D038FEFC81A44
:10037000D80A850190CFE5A4F6A4EF2861F0F1A892
:10038000DF1460F0FD1007C0E2A8DF2CE11419F0C3
:10039000EC01CC24C3940196F39697CFAC01F4CF33
:1003A000CE0101961C9FF0011D9FF00D1124E05A13
:1003B000FF4FE60FF71F8217930708F08ECFE080FC
:1003C000F1800196EF2821F0F480DF1409F487CF43
:1003D000F396F1CFD1965C91D197451303C0D29695
:1003E0001C92D2970196D3968ECF81E090E0DF9158
:1003F000CF911F910F91FF90EF90DF90CF90BF9022
:10040000AF9008958091BB019091BC01892BD9F0E8
:100410002091B9013091BA0112161306A4F443E3F6
:10042000429FC001439F900D1124C3972091C101A9
:100430003091C20164E971E0820F931F0E94BA02F9
:1004400080E090E0089581E090E00895EF93FF93BD
:10045000EFB70F92EF93E82FF92F0F9001920F90C3
:100460000192119221923192419251926192719234
:1004700081929192A192B192C192D192E192F19224
:10048000019311932193319341935193619371930C
:1004900081939193A193B193C193D193CE2FDF2FE9
:1004A000FF91EF91E993F993EF91FF91F993E9931C
:1004B000ADB7BEB7A993B883FF93EF93EC2FFD2F91
:1004C000CFB73997CFBFA191B191C191D191CF93BE
:1004D000DF93CE2FDF2FE991F881DF91CF9180E07C
:1004E00090E00895E82FF92FB49600800EBE029098
:1004F0000DBE129002900F921F92CE2FDF2FFA9115
:10050000EA91FF93EF93EC2FFD2FD291C291B2911C
:10051000A291929182917291629152914291329103
:10052000229112910291F290E290D290C290B290F8
:10053000A2909290829072906290529042903290EB
:100540002290129002900F9202900FBE0F90EF91A6
:10055000FF9180E090E00895CF93DF93D82FC92FCB
:10056000CA01FB0109958D2F9C2F0E947202DF9119
:10057000CF910895EF93FF93EFB70F92EF93E82F8A
:10058000F92F0F9001920F900192119221923192C6
:10059000419251926192719281929192A192B19203
:1005A000C192D192E192F1920193119321933193EF
:1005B000419351936193719381939193A193B193DB
:1005C000C193D193CE2FDF2FFF91EF91E993F99350
:1005D000EF91FF91F993E993ADB7BEB7A993B883B3
:1005E000FF93EF93EC2FFD2FCFB73997CFBFA1919A
:1005F000B191C191D191CF93DF93CE2FDF2FE991AC
:10060000F881DF91CF91E62FF72FB49600800EBED0
:1006100002900DBE129002900F921F92CE2FDF2FEC
:10062000FA91EA91FF93EF93EC2FFD2FD291C291B3
:10063000B291A29192918291729162915291429162
:100640003291229112910291F290E290D290C29056
:10065000B290A2909290829072906290529042904A
:1006600032902290129002900F9202900FBE0F9043
:10067000EF91FF9180E090E00895EF92FF920F9349
:100680001F93FC0141505109640F751F74A363A3AC
:100690008CEA92E092A381A3218F328F078B108F77
:1006A000E58AF68A80E090E01F910F91FF90EF902D
:1006B000089583E191E00E942C062D9A2FEF83ED9F
:1006C00090E3215080409040E1F700C000000E947C
:1006D0000202EFCF81E291E00E942C062D982FEFCD
:1006E00083ED90E3215080409040E1F700C000008E
:1006F0000E940202EFCFCF93C82FCB01892B79F054
:10070000CA3019F48DE00E947B038091C00085FF00
:10071000FCCFC093C60080E090E0CF9108958FEFAA
:100720009FEFFBCF892B41F08091C00087FFFCCF6A
:100730008091C60090E008958FEF9FEF0895009795
:1007400019F1E091F102F091F2020190F081E02DB7
:10075000309719F40C949203000022853385848528
:10076000958528173907C1F3DF01A20FB31F4C91FC
:10077000C90101966AE070E00E947E049387828737
:10078000842F440F990B08958FEF9FEF08950F92D8
:100790000FB60F921F9211242F935F936F937F9345
:1007A0008F939F93AF93BF93EF93FF93E091F102E9
:1007B000F091F2020190F081E02D309799F0809154
:1007C000C00087FFFCCF2091C60084859585DF019E
:1007D000A80FB91F2C9301966AE070E00E947E0476
:1007E00095878487FF91EF91BF91AF919F918F91F2
:1007F0007F916F915F912F911F900F900FBE0F907F
:1008000018952FEF89E698E1215080409040E1F75C
:1008100000C000001092C50087E68093C4006EE01F
:1008200070E081E090E00E949204EC01892B09F0D5
:1008300050C088E18093C10086E08093C20062E9E5
:1008400073E08BE793E00E94E2059093F2028093BD
:10085000F10280E391E00E942C06259A62E070E0AC
:100860008BE892E00E945300892B21F089E391E00C
:100870000E942C0601E024E630E047E252E060E00E
:1008800070E089E593E00E948D001816190624F0A7
:100890008FE491E00E942C0601E024E630E043EC76
:1008A00051E060E070E08AE693E00E948D00181647
:1008B000190624F085E691E00E942C060E942C0186
:1008C000892B21F08CE791E00E942C0680E090E0DB
:1008D000089588E98093C10086E08093C2006FE9A3
:1008E00073E08BE793E00E94E205FC019093F20233
:1008F0008093F102D183C0837894ABCFAA1BBB1B3A
:1009000051E107C0AA1FBB1FA617B70710F0A61B0F
:10091000B70B881F991F5A95A9F780959095BC0130
:10092000CD0108950F931F93CF93DF93869F80018E
:10093000879F100D969F100D1124C8010E94AE04D0
:10094000EC01009729F0A80160E070E00E94DB054F
:10095000CE01DF91CF911F910F9108950F931F93B7
:10096000CF93DF939C01029710F422E030E0E091F6
:10097000F302F091F40280E090E0A0E0B0E0309764
:1009800091F4009709F448C0821B930B84309105C1
:10099000D0F58A819B816115710581F1FB019383FB
:1009A0008283FE0111C0408151810281138142176F
:1009B0005307D8F04217530799F4109761F0129635
:1009C0000C93129713961C933296CF01DF91CF911F
:1009D0001F910F9108950093F3021093F402F4CF46
:1009E000009751F04817590738F0AC01DB01CA01F4
:1009F000BD01DF01F801C3CFEF01F9CF9093F402FD
:100A00008093F302CECFFE01E80FF91F21933193BB
:100A1000029799838883D9CF8091F5029091F6024D
:100A2000892B41F480910201909103019093F60289
:100A30008093F5028091000190910101009741F4AB
:100A40008DB79EB74091040150910501841B950B11
:100A50004091F5025091F6024817590708F0B5CFBA
:100A6000841B950B8217930708F4AFCFB9016E5F13
:100A70007F4F8617970708F4A8CF640F751F7093F0
:100A8000F6026093F502FA01219331939ECFCF9342
:100A9000DF939C010097D9F0FC01329713821282F8
:100AA000C091F302D091F402209709F058C08081E0
:100AB0009181280F391F8091F5029091F6028217DB
:100AC000930709F06DC0F093F602E093F502DF9111
:100AD000CF910895AE17BF0708F048C0CD01129618
:100AE0000D90BC91A02D1097A9F7DC011396FC93F3
:100AF000EE9312974D915D919D01240F351FE217E2
:100B0000F30781F4208131812E5F3F4F240F351F81
:100B1000DC0111963C932E932281338113963C93F2
:100B20002E931297E0E0F0E08A819B810097E9F52F
:100B3000DE018D919D918A0F9B1F2091F5023091CE
:100B4000F6022817390719F6309791F51092F4023A
:100B50001092F302D093F602C093F502B8CFDE01F3
:100B600080E090E0CE17DF0708F4B8CFB383A2830C
:100B700040815181240F351FA217B30771F44E5FD6
:100B80005F4F2D913C911197240F351F31832083A6
:100B900012962D913C9133832283009709F0A5CFC3
:100BA000F093F402E093F30292CFFE01EC01BCCF8C
:100BB00013821282CFCFDC0101C06D9341505040AF
:100BC000E0F708950F931F93CF93DF93EC018B0110
:100BD000892B51F4672B41F4E0E0F0E0CF01DF9185
:100BE000CF911F910F9108956EE070E081E090E049
:100BF0000E949204FC01892B79F380E8838301151C
:100C0000110571F01387028781E883838091F702D1
:100C10009091F802892B21F4F093F802E093F70207
:100C20002097E1F2D187C08783818260838380919E
:100C3000F9029091FA02892B89F6F093FA02E09377
:100C4000F9028091FB029091FC02892B39F6F09316
:100C5000FC02E093FB02C2CF0F931F93CF93DF936D
:100C6000E091F902F091FA02238100E010E021FD09
:100C70000EC00FEF1FEFC801DF91CF911F910F91B1
:100C800008950995892B11F00FEF1FEFCE01EC01AC
:100C900089916091F9027091FA02DB011896ED9149
:100CA000FC918111EECF8AE00995892B21F3E1CFE8
:040CB000F894FFCFE6
:100CB4000000FD0220007377697463682065727216
:100CC4006F72006C65645F6F6E5F746872656164F7
:100CD400006C65645F6F66665F746872656164006A
:100CE4007374617274696E670074687265616473A9
:100CF4002061727261792070726F626C656D006C34
:100D040065645F6F6E5F7468726561642070726F92
:100D1400626C656D006C65645F6F66665F746872B3
:100D24006561642070726F626C656D0073746172CA
:100D340074207363686564756C65722070726F6289
:040D44006C656D006D
:00000001FF
